{
	"contracts/Mapping.sol": {
		"Enum": {
			"abi": [
				{
					"inputs": [],
					"name": "cancel",
					"outputs": [],
					"stateMutability": "nonpayable",
					"type": "function"
				},
				{
					"inputs": [],
					"name": "get",
					"outputs": [
						{
							"internalType": "enum Enum.Status",
							"name": "",
							"type": "uint8"
						}
					],
					"stateMutability": "view",
					"type": "function"
				},
				{
					"inputs": [],
					"name": "reset",
					"outputs": [],
					"stateMutability": "nonpayable",
					"type": "function"
				},
				{
					"inputs": [
						{
							"internalType": "enum Enum.Status",
							"name": "_status",
							"type": "uint8"
						}
					],
					"name": "set",
					"outputs": [],
					"stateMutability": "nonpayable",
					"type": "function"
				},
				{
					"inputs": [],
					"name": "status",
					"outputs": [
						{
							"internalType": "enum Enum.Status",
							"name": "",
							"type": "uint8"
						}
					],
					"stateMutability": "view",
					"type": "function"
				}
			],
			"devdoc": {
				"kind": "dev",
				"methods": {},
				"version": 1
			},
			"evm": {
				"assembly": "    /* \"contracts/Mapping.sol\":1808:2468  contract Enum{... */\n  mstore(0x40, 0x80)\n  callvalue\n  dup1\n  iszero\n  tag_1\n  jumpi\n  0x00\n  dup1\n  revert\ntag_1:\n  pop\n  dataSize(sub_0)\n  dup1\n  dataOffset(sub_0)\n  0x00\n  codecopy\n  0x00\n  return\nstop\n\nsub_0: assembly {\n        /* \"contracts/Mapping.sol\":1808:2468  contract Enum{... */\n      mstore(0x40, 0x80)\n      callvalue\n      dup1\n      iszero\n      tag_1\n      jumpi\n      0x00\n      dup1\n      revert\n    tag_1:\n      pop\n      jumpi(tag_2, lt(calldatasize, 0x04))\n      shr(0xe0, calldataload(0x00))\n      dup1\n      0x200d2ed2\n      eq\n      tag_3\n      jumpi\n      dup1\n      0x24b8ba5f\n      eq\n      tag_4\n      jumpi\n      dup1\n      0x6d4ce63c\n      eq\n      tag_5\n      jumpi\n      dup1\n      0xd826f88f\n      eq\n      tag_6\n      jumpi\n      dup1\n      0xea8a1af0\n      eq\n      tag_7\n      jumpi\n    tag_2:\n      0x00\n      dup1\n      revert\n        /* \"contracts/Mapping.sol\":2025:2045  Status public status */\n    tag_3:\n      tag_8\n      tag_9\n      jump\t// in\n    tag_8:\n      mload(0x40)\n      tag_10\n      swap2\n      swap1\n      tag_11\n      jump\t// in\n    tag_10:\n      mload(0x40)\n      dup1\n      swap2\n      sub\n      swap1\n      return\n        /* \"contracts/Mapping.sol\":2224:2294  function set(Status _status) public{... */\n    tag_4:\n      tag_12\n      0x04\n      dup1\n      calldatasize\n      sub\n      dup2\n      add\n      swap1\n      tag_13\n      swap2\n      swap1\n      tag_14\n      jump\t// in\n    tag_13:\n      tag_15\n      jump\t// in\n    tag_12:\n      stop\n        /* \"contracts/Mapping.sol\":2141:2215  function get() public view returns(Status){... */\n    tag_5:\n      tag_16\n      tag_17\n      jump\t// in\n    tag_16:\n      mload(0x40)\n      tag_18\n      swap2\n      swap1\n      tag_11\n      jump\t// in\n    tag_18:\n      mload(0x40)\n      dup1\n      swap2\n      sub\n      swap1\n      return\n        /* \"contracts/Mapping.sol\":2410:2465  function reset() public{... */\n    tag_6:\n      tag_19\n      tag_20\n      jump\t// in\n    tag_19:\n      stop\n        /* \"contracts/Mapping.sol\":2302:2368  function cancel() public {... */\n    tag_7:\n      tag_21\n      tag_22\n      jump\t// in\n    tag_21:\n      stop\n        /* \"contracts/Mapping.sol\":2025:2045  Status public status */\n    tag_9:\n      0x00\n      dup1\n      sload\n      swap1\n      0x0100\n      exp\n      swap1\n      div\n      0xff\n      and\n      dup2\n      jump\t// out\n        /* \"contracts/Mapping.sol\":2224:2294  function set(Status _status) public{... */\n    tag_15:\n        /* \"contracts/Mapping.sol\":2279:2286  _status */\n      dup1\n        /* \"contracts/Mapping.sol\":2270:2276  status */\n      0x00\n      dup1\n        /* \"contracts/Mapping.sol\":2270:2286  status = _status */\n      0x0100\n      exp\n      dup2\n      sload\n      dup2\n      0xff\n      mul\n      not\n      and\n      swap1\n      dup4\n      0x04\n      dup2\n      gt\n      iszero\n      tag_24\n      jumpi\n      tag_25\n      tag_26\n      jump\t// in\n    tag_25:\n    tag_24:\n      mul\n      or\n      swap1\n      sstore\n      pop\n        /* \"contracts/Mapping.sol\":2224:2294  function set(Status _status) public{... */\n      pop\n      jump\t// out\n        /* \"contracts/Mapping.sol\":2141:2215  function get() public view returns(Status){... */\n    tag_17:\n        /* \"contracts/Mapping.sol\":2176:2182  Status */\n      0x00\n        /* \"contracts/Mapping.sol\":2201:2207  status */\n      dup1\n      0x00\n      swap1\n      sload\n      swap1\n      0x0100\n      exp\n      swap1\n      div\n      0xff\n      and\n        /* \"contracts/Mapping.sol\":2194:2207  return status */\n      swap1\n      pop\n        /* \"contracts/Mapping.sol\":2141:2215  function get() public view returns(Status){... */\n      swap1\n      jump\t// out\n        /* \"contracts/Mapping.sol\":2410:2465  function reset() public{... */\n    tag_20:\n        /* \"contracts/Mapping.sol\":2451:2457  status */\n      0x00\n      dup1\n        /* \"contracts/Mapping.sol\":2444:2457  delete status */\n      0x0100\n      exp\n      dup2\n      sload\n      swap1\n      0xff\n      mul\n      not\n      and\n      swap1\n      sstore\n        /* \"contracts/Mapping.sol\":2410:2465  function reset() public{... */\n      jump\t// out\n        /* \"contracts/Mapping.sol\":2302:2368  function cancel() public {... */\n    tag_22:\n        /* \"contracts/Mapping.sol\":2347:2360  Status.Cancel */\n      0x04\n        /* \"contracts/Mapping.sol\":2338:2344  status */\n      0x00\n      dup1\n        /* \"contracts/Mapping.sol\":2338:2360  status = Status.Cancel */\n      0x0100\n      exp\n      dup2\n      sload\n      dup2\n      0xff\n      mul\n      not\n      and\n      swap1\n      dup4\n      0x04\n      dup2\n      gt\n      iszero\n      tag_30\n      jumpi\n      tag_31\n      tag_26\n      jump\t// in\n    tag_31:\n    tag_30:\n      mul\n      or\n      swap1\n      sstore\n      pop\n        /* \"contracts/Mapping.sol\":2302:2368  function cancel() public {... */\n      jump\t// out\n        /* \"#utility.yul\":7:187   */\n    tag_26:\n        /* \"#utility.yul\":55:132   */\n      0x4e487b7100000000000000000000000000000000000000000000000000000000\n        /* \"#utility.yul\":52:53   */\n      0x00\n        /* \"#utility.yul\":45:133   */\n      mstore\n        /* \"#utility.yul\":152:156   */\n      0x21\n        /* \"#utility.yul\":149:150   */\n      0x04\n        /* \"#utility.yul\":142:157   */\n      mstore\n        /* \"#utility.yul\":176:180   */\n      0x24\n        /* \"#utility.yul\":173:174   */\n      0x00\n        /* \"#utility.yul\":166:181   */\n      revert\n        /* \"#utility.yul\":193:308   */\n    tag_32:\n        /* \"#utility.yul\":276:277   */\n      0x05\n        /* \"#utility.yul\":269:274   */\n      dup2\n        /* \"#utility.yul\":266:278   */\n      lt\n        /* \"#utility.yul\":256:302   */\n      tag_44\n      jumpi\n        /* \"#utility.yul\":282:300   */\n      tag_45\n      tag_26\n      jump\t// in\n    tag_45:\n        /* \"#utility.yul\":256:302   */\n    tag_44:\n        /* \"#utility.yul\":193:308   */\n      pop\n      jump\t// out\n        /* \"#utility.yul\":314:445   */\n    tag_33:\n        /* \"#utility.yul\":361:368   */\n      0x00\n        /* \"#utility.yul\":390:395   */\n      dup2\n        /* \"#utility.yul\":379:395   */\n      swap1\n      pop\n        /* \"#utility.yul\":396:439   */\n      tag_47\n        /* \"#utility.yul\":433:438   */\n      dup3\n        /* \"#utility.yul\":396:439   */\n      tag_32\n      jump\t// in\n    tag_47:\n        /* \"#utility.yul\":314:445   */\n      swap2\n      swap1\n      pop\n      jump\t// out\n        /* \"#utility.yul\":451:582   */\n    tag_34:\n        /* \"#utility.yul\":509:518   */\n      0x00\n        /* \"#utility.yul\":542:576   */\n      tag_49\n        /* \"#utility.yul\":570:575   */\n      dup3\n        /* \"#utility.yul\":542:576   */\n      tag_33\n      jump\t// in\n    tag_49:\n        /* \"#utility.yul\":529:576   */\n      swap1\n      pop\n        /* \"#utility.yul\":451:582   */\n      swap2\n      swap1\n      pop\n      jump\t// out\n        /* \"#utility.yul\":588:735   */\n    tag_35:\n        /* \"#utility.yul\":683:728   */\n      tag_51\n        /* \"#utility.yul\":722:727   */\n      dup2\n        /* \"#utility.yul\":683:728   */\n      tag_34\n      jump\t// in\n    tag_51:\n        /* \"#utility.yul\":678:681   */\n      dup3\n        /* \"#utility.yul\":671:729   */\n      mstore\n        /* \"#utility.yul\":588:735   */\n      pop\n      pop\n      jump\t// out\n        /* \"#utility.yul\":741:979   */\n    tag_11:\n        /* \"#utility.yul\":842:846   */\n      0x00\n        /* \"#utility.yul\":880:882   */\n      0x20\n        /* \"#utility.yul\":869:878   */\n      dup3\n        /* \"#utility.yul\":865:883   */\n      add\n        /* \"#utility.yul\":857:883   */\n      swap1\n      pop\n        /* \"#utility.yul\":893:972   */\n      tag_53\n        /* \"#utility.yul\":969:970   */\n      0x00\n        /* \"#utility.yul\":958:967   */\n      dup4\n        /* \"#utility.yul\":954:971   */\n      add\n        /* \"#utility.yul\":945:951   */\n      dup5\n        /* \"#utility.yul\":893:972   */\n      tag_35\n      jump\t// in\n    tag_53:\n        /* \"#utility.yul\":741:979   */\n      swap3\n      swap2\n      pop\n      pop\n      jump\t// out\n        /* \"#utility.yul\":1066:1183   */\n    tag_37:\n        /* \"#utility.yul\":1175:1176   */\n      0x00\n        /* \"#utility.yul\":1172:1173   */\n      dup1\n        /* \"#utility.yul\":1165:1177   */\n      revert\n        /* \"#utility.yul\":1312:1421   */\n    tag_39:\n        /* \"#utility.yul\":1395:1396   */\n      0x05\n        /* \"#utility.yul\":1388:1393   */\n      dup2\n        /* \"#utility.yul\":1385:1397   */\n      lt\n        /* \"#utility.yul\":1375:1415   */\n      tag_58\n      jumpi\n        /* \"#utility.yul\":1411:1412   */\n      0x00\n        /* \"#utility.yul\":1408:1409   */\n      dup1\n        /* \"#utility.yul\":1401:1413   */\n      revert\n        /* \"#utility.yul\":1375:1415   */\n    tag_58:\n        /* \"#utility.yul\":1312:1421   */\n      pop\n      jump\t// out\n        /* \"#utility.yul\":1427:1586   */\n    tag_40:\n        /* \"#utility.yul\":1483:1488   */\n      0x00\n        /* \"#utility.yul\":1521:1527   */\n      dup2\n        /* \"#utility.yul\":1508:1528   */\n      calldataload\n        /* \"#utility.yul\":1499:1528   */\n      swap1\n      pop\n        /* \"#utility.yul\":1537:1580   */\n      tag_60\n        /* \"#utility.yul\":1574:1579   */\n      dup2\n        /* \"#utility.yul\":1537:1580   */\n      tag_39\n      jump\t// in\n    tag_60:\n        /* \"#utility.yul\":1427:1586   */\n      swap3\n      swap2\n      pop\n      pop\n      jump\t// out\n        /* \"#utility.yul\":1592:1941   */\n    tag_14:\n        /* \"#utility.yul\":1661:1667   */\n      0x00\n        /* \"#utility.yul\":1710:1712   */\n      0x20\n        /* \"#utility.yul\":1698:1707   */\n      dup3\n        /* \"#utility.yul\":1689:1696   */\n      dup5\n        /* \"#utility.yul\":1685:1708   */\n      sub\n        /* \"#utility.yul\":1681:1713   */\n      slt\n        /* \"#utility.yul\":1678:1797   */\n      iszero\n      tag_62\n      jumpi\n        /* \"#utility.yul\":1716:1795   */\n      tag_63\n      tag_37\n      jump\t// in\n    tag_63:\n        /* \"#utility.yul\":1678:1797   */\n    tag_62:\n        /* \"#utility.yul\":1836:1837   */\n      0x00\n        /* \"#utility.yul\":1861:1924   */\n      tag_64\n        /* \"#utility.yul\":1916:1923   */\n      dup5\n        /* \"#utility.yul\":1907:1913   */\n      dup3\n        /* \"#utility.yul\":1896:1905   */\n      dup6\n        /* \"#utility.yul\":1892:1914   */\n      add\n        /* \"#utility.yul\":1861:1924   */\n      tag_40\n      jump\t// in\n    tag_64:\n        /* \"#utility.yul\":1851:1924   */\n      swap2\n      pop\n        /* \"#utility.yul\":1807:1934   */\n      pop\n        /* \"#utility.yul\":1592:1941   */\n      swap3\n      swap2\n      pop\n      pop\n      jump\t// out\n\n    auxdata: 0xa2646970667358221220f610f9a7af01f16e436734dc942516174ebe002ba50507bdc8e0c8c8a5a8148364736f6c63430008120033\n}\n",
				"bytecode": {
					"linkReferences": {},
					"object": "608060405234801561001057600080fd5b50610279806100206000396000f3fe608060405234801561001057600080fd5b50600436106100575760003560e01c8063200d2ed21461005c57806324b8ba5f1461007a5780636d4ce63c14610096578063d826f88f146100b4578063ea8a1af0146100be575b600080fd5b6100646100c8565b60405161007191906101d1565b60405180910390f35b610094600480360381019061008f9190610216565b6100d9565b005b61009e610105565b6040516100ab91906101d1565b60405180910390f35b6100bc61011b565b005b6100c661012e565b005b60008054906101000a900460ff1681565b806000806101000a81548160ff021916908360048111156100fd576100fc61015a565b5b021790555050565b60008060009054906101000a900460ff16905090565b6000806101000a81549060ff0219169055565b60046000806101000a81548160ff021916908360048111156101535761015261015a565b5b0217905550565b7f4e487b7100000000000000000000000000000000000000000000000000000000600052602160045260246000fd5b6005811061019a5761019961015a565b5b50565b60008190506101ab82610189565b919050565b60006101bb8261019d565b9050919050565b6101cb816101b0565b82525050565b60006020820190506101e660008301846101c2565b92915050565b600080fd5b600581106101fe57600080fd5b50565b600081359050610210816101f1565b92915050565b60006020828403121561022c5761022b6101ec565b5b600061023a84828501610201565b9150509291505056fea2646970667358221220f610f9a7af01f16e436734dc942516174ebe002ba50507bdc8e0c8c8a5a8148364736f6c63430008120033",
					"opcodes": "PUSH1 0x80 PUSH1 0x40 MSTORE CALLVALUE DUP1 ISZERO PUSH2 0x10 JUMPI PUSH1 0x0 DUP1 REVERT JUMPDEST POP PUSH2 0x279 DUP1 PUSH2 0x20 PUSH1 0x0 CODECOPY PUSH1 0x0 RETURN INVALID PUSH1 0x80 PUSH1 0x40 MSTORE CALLVALUE DUP1 ISZERO PUSH2 0x10 JUMPI PUSH1 0x0 DUP1 REVERT JUMPDEST POP PUSH1 0x4 CALLDATASIZE LT PUSH2 0x57 JUMPI PUSH1 0x0 CALLDATALOAD PUSH1 0xE0 SHR DUP1 PUSH4 0x200D2ED2 EQ PUSH2 0x5C JUMPI DUP1 PUSH4 0x24B8BA5F EQ PUSH2 0x7A JUMPI DUP1 PUSH4 0x6D4CE63C EQ PUSH2 0x96 JUMPI DUP1 PUSH4 0xD826F88F EQ PUSH2 0xB4 JUMPI DUP1 PUSH4 0xEA8A1AF0 EQ PUSH2 0xBE JUMPI JUMPDEST PUSH1 0x0 DUP1 REVERT JUMPDEST PUSH2 0x64 PUSH2 0xC8 JUMP JUMPDEST PUSH1 0x40 MLOAD PUSH2 0x71 SWAP2 SWAP1 PUSH2 0x1D1 JUMP JUMPDEST PUSH1 0x40 MLOAD DUP1 SWAP2 SUB SWAP1 RETURN JUMPDEST PUSH2 0x94 PUSH1 0x4 DUP1 CALLDATASIZE SUB DUP2 ADD SWAP1 PUSH2 0x8F SWAP2 SWAP1 PUSH2 0x216 JUMP JUMPDEST PUSH2 0xD9 JUMP JUMPDEST STOP JUMPDEST PUSH2 0x9E PUSH2 0x105 JUMP JUMPDEST PUSH1 0x40 MLOAD PUSH2 0xAB SWAP2 SWAP1 PUSH2 0x1D1 JUMP JUMPDEST PUSH1 0x40 MLOAD DUP1 SWAP2 SUB SWAP1 RETURN JUMPDEST PUSH2 0xBC PUSH2 0x11B JUMP JUMPDEST STOP JUMPDEST PUSH2 0xC6 PUSH2 0x12E JUMP JUMPDEST STOP JUMPDEST PUSH1 0x0 DUP1 SLOAD SWAP1 PUSH2 0x100 EXP SWAP1 DIV PUSH1 0xFF AND DUP2 JUMP JUMPDEST DUP1 PUSH1 0x0 DUP1 PUSH2 0x100 EXP DUP2 SLOAD DUP2 PUSH1 0xFF MUL NOT AND SWAP1 DUP4 PUSH1 0x4 DUP2 GT ISZERO PUSH2 0xFD JUMPI PUSH2 0xFC PUSH2 0x15A JUMP JUMPDEST JUMPDEST MUL OR SWAP1 SSTORE POP POP JUMP JUMPDEST PUSH1 0x0 DUP1 PUSH1 0x0 SWAP1 SLOAD SWAP1 PUSH2 0x100 EXP SWAP1 DIV PUSH1 0xFF AND SWAP1 POP SWAP1 JUMP JUMPDEST PUSH1 0x0 DUP1 PUSH2 0x100 EXP DUP2 SLOAD SWAP1 PUSH1 0xFF MUL NOT AND SWAP1 SSTORE JUMP JUMPDEST PUSH1 0x4 PUSH1 0x0 DUP1 PUSH2 0x100 EXP DUP2 SLOAD DUP2 PUSH1 0xFF MUL NOT AND SWAP1 DUP4 PUSH1 0x4 DUP2 GT ISZERO PUSH2 0x153 JUMPI PUSH2 0x152 PUSH2 0x15A JUMP JUMPDEST JUMPDEST MUL OR SWAP1 SSTORE POP JUMP JUMPDEST PUSH32 0x4E487B7100000000000000000000000000000000000000000000000000000000 PUSH1 0x0 MSTORE PUSH1 0x21 PUSH1 0x4 MSTORE PUSH1 0x24 PUSH1 0x0 REVERT JUMPDEST PUSH1 0x5 DUP2 LT PUSH2 0x19A JUMPI PUSH2 0x199 PUSH2 0x15A JUMP JUMPDEST JUMPDEST POP JUMP JUMPDEST PUSH1 0x0 DUP2 SWAP1 POP PUSH2 0x1AB DUP3 PUSH2 0x189 JUMP JUMPDEST SWAP2 SWAP1 POP JUMP JUMPDEST PUSH1 0x0 PUSH2 0x1BB DUP3 PUSH2 0x19D JUMP JUMPDEST SWAP1 POP SWAP2 SWAP1 POP JUMP JUMPDEST PUSH2 0x1CB DUP2 PUSH2 0x1B0 JUMP JUMPDEST DUP3 MSTORE POP POP JUMP JUMPDEST PUSH1 0x0 PUSH1 0x20 DUP3 ADD SWAP1 POP PUSH2 0x1E6 PUSH1 0x0 DUP4 ADD DUP5 PUSH2 0x1C2 JUMP JUMPDEST SWAP3 SWAP2 POP POP JUMP JUMPDEST PUSH1 0x0 DUP1 REVERT JUMPDEST PUSH1 0x5 DUP2 LT PUSH2 0x1FE JUMPI PUSH1 0x0 DUP1 REVERT JUMPDEST POP JUMP JUMPDEST PUSH1 0x0 DUP2 CALLDATALOAD SWAP1 POP PUSH2 0x210 DUP2 PUSH2 0x1F1 JUMP JUMPDEST SWAP3 SWAP2 POP POP JUMP JUMPDEST PUSH1 0x0 PUSH1 0x20 DUP3 DUP5 SUB SLT ISZERO PUSH2 0x22C JUMPI PUSH2 0x22B PUSH2 0x1EC JUMP JUMPDEST JUMPDEST PUSH1 0x0 PUSH2 0x23A DUP5 DUP3 DUP6 ADD PUSH2 0x201 JUMP JUMPDEST SWAP2 POP POP SWAP3 SWAP2 POP POP JUMP INVALID LOG2 PUSH5 0x6970667358 0x22 SLT KECCAK256 0xF6 LT 0xF9 0xA7 0xAF ADD CALL PUSH15 0x436734DC942516174EBE002BA50507 0xBD 0xC8 0xE0 0xC8 0xC8 0xA5 0xA8 EQ DUP4 PUSH5 0x736F6C6343 STOP ADDMOD SLT STOP CALLER "
				},
				"gasEstimates": {
					"creation": {
						"codeDepositCost": "126600",
						"executionCost": "171",
						"totalCost": "126771"
					},
					"external": {
						"cancel()": "24497",
						"get()": "2590",
						"reset()": "24430",
						"set(uint8)": "24650",
						"status()": "2535"
					}
				},
				"methodIdentifiers": {
					"cancel()": "ea8a1af0",
					"get()": "6d4ce63c",
					"reset()": "d826f88f",
					"set(uint8)": "24b8ba5f",
					"status()": "200d2ed2"
				}
			},
			"storageLayout": {
				"storage": [
					{
						"astId": 176,
						"contract": "contracts/Mapping.sol:Enum",
						"label": "status",
						"offset": 0,
						"slot": "0",
						"type": "t_enum(Status)173"
					}
				],
				"types": {
					"t_enum(Status)173": {
						"encoding": "inplace",
						"label": "enum Enum.Status",
						"numberOfBytes": "1"
					}
				}
			},
			"userdoc": {
				"kind": "user",
				"methods": {},
				"version": 1
			}
		}
	}
}