{
	"contracts/Mapping.sol": {
		"Todos": {
			"abi": [
				{
					"inputs": [
						{
							"internalType": "string",
							"name": "_text",
							"type": "string"
						}
					],
					"name": "create",
					"outputs": [],
					"stateMutability": "nonpayable",
					"type": "function"
				},
				{
					"inputs": [
						{
							"internalType": "uint256",
							"name": "_index",
							"type": "uint256"
						}
					],
					"name": "get",
					"outputs": [
						{
							"internalType": "string",
							"name": "text",
							"type": "string"
						},
						{
							"internalType": "bool",
							"name": "completed",
							"type": "bool"
						}
					],
					"stateMutability": "view",
					"type": "function"
				},
				{
					"inputs": [
						{
							"internalType": "uint256",
							"name": "",
							"type": "uint256"
						}
					],
					"name": "todos",
					"outputs": [
						{
							"internalType": "string",
							"name": "textvar",
							"type": "string"
						},
						{
							"internalType": "bool",
							"name": "completed",
							"type": "bool"
						}
					],
					"stateMutability": "view",
					"type": "function"
				},
				{
					"inputs": [
						{
							"internalType": "uint256",
							"name": "_index",
							"type": "uint256"
						}
					],
					"name": "toggleCompleted",
					"outputs": [],
					"stateMutability": "nonpayable",
					"type": "function"
				},
				{
					"inputs": [
						{
							"internalType": "uint256",
							"name": "_index",
							"type": "uint256"
						},
						{
							"internalType": "string",
							"name": "_text",
							"type": "string"
						}
					],
					"name": "updateText",
					"outputs": [],
					"stateMutability": "nonpayable",
					"type": "function"
				}
			],
			"devdoc": {
				"kind": "dev",
				"methods": {},
				"version": 1
			},
			"evm": {
				"assembly": "    /* \"contracts/Mapping.sol\":2474:3286  contract Todos{... */\n  mstore(0x40, 0x80)\n  callvalue\n  dup1\n  iszero\n  tag_1\n  jumpi\n  0x00\n  dup1\n  revert\ntag_1:\n  pop\n  dataSize(sub_0)\n  dup1\n  dataOffset(sub_0)\n  0x00\n  codecopy\n  0x00\n  return\nstop\n\nsub_0: assembly {\n        /* \"contracts/Mapping.sol\":2474:3286  contract Todos{... */\n      mstore(0x40, 0x80)\n      callvalue\n      dup1\n      iszero\n      tag_1\n      jumpi\n      0x00\n      dup1\n      revert\n    tag_1:\n      pop\n      jumpi(tag_2, lt(calldatasize, 0x04))\n      shr(0xe0, calldataload(0x00))\n      dup1\n      0x455f5024\n      eq\n      tag_3\n      jumpi\n      dup1\n      0x9507d39a\n      eq\n      tag_4\n      jumpi\n      dup1\n      0xb6a46b3b\n      eq\n      tag_5\n      jumpi\n      dup1\n      0xbc8bc2b4\n      eq\n      tag_6\n      jumpi\n      dup1\n      0xcd111614\n      eq\n      tag_7\n      jumpi\n    tag_2:\n      0x00\n      dup1\n      revert\n        /* \"contracts/Mapping.sol\":3139:3279  function toggleCompleted(uint _index) public {... */\n    tag_3:\n      tag_8\n      0x04\n      dup1\n      calldatasize\n      sub\n      dup2\n      add\n      swap1\n      tag_9\n      swap2\n      swap1\n      tag_10\n      jump\t// in\n    tag_9:\n      tag_11\n      jump\t// in\n    tag_8:\n      stop\n        /* \"contracts/Mapping.sol\":2804:2981  function get(uint _index) public view returns(string memory text, bool completed){... */\n    tag_4:\n      tag_12\n      0x04\n      dup1\n      calldatasize\n      sub\n      dup2\n      add\n      swap1\n      tag_13\n      swap2\n      swap1\n      tag_10\n      jump\t// in\n    tag_13:\n      tag_14\n      jump\t// in\n    tag_12:\n      mload(0x40)\n      tag_15\n      swap3\n      swap2\n      swap1\n      tag_16\n      jump\t// in\n    tag_15:\n      mload(0x40)\n      dup1\n      swap2\n      sub\n      swap1\n      return\n        /* \"contracts/Mapping.sol\":2625:2795  function create(string calldata _text) public {... */\n    tag_5:\n      tag_17\n      0x04\n      dup1\n      calldatasize\n      sub\n      dup2\n      add\n      swap1\n      tag_18\n      swap2\n      swap1\n      tag_19\n      jump\t// in\n    tag_18:\n      tag_20\n      jump\t// in\n    tag_17:\n      stop\n        /* \"contracts/Mapping.sol\":2597:2616  Todo[] public todos */\n    tag_6:\n      tag_21\n      0x04\n      dup1\n      calldatasize\n      sub\n      dup2\n      add\n      swap1\n      tag_22\n      swap2\n      swap1\n      tag_10\n      jump\t// in\n    tag_22:\n      tag_23\n      jump\t// in\n    tag_21:\n      mload(0x40)\n      tag_24\n      swap3\n      swap2\n      swap1\n      tag_16\n      jump\t// in\n    tag_24:\n      mload(0x40)\n      dup1\n      swap2\n      sub\n      swap1\n      return\n        /* \"contracts/Mapping.sol\":2989:3131  function updateText(uint _index, string calldata _text)public{... */\n    tag_7:\n      tag_25\n      0x04\n      dup1\n      calldatasize\n      sub\n      dup2\n      add\n      swap1\n      tag_26\n      swap2\n      swap1\n      tag_27\n      jump\t// in\n    tag_26:\n      tag_28\n      jump\t// in\n    tag_25:\n      stop\n        /* \"contracts/Mapping.sol\":3139:3279  function toggleCompleted(uint _index) public {... */\n    tag_11:\n        /* \"contracts/Mapping.sol\":3195:3212  Todo storage todo */\n      0x00\n        /* \"contracts/Mapping.sol\":3215:3220  todos */\n      dup1\n        /* \"contracts/Mapping.sol\":3221:3227  _index */\n      dup3\n        /* \"contracts/Mapping.sol\":3215:3228  todos[_index] */\n      dup2\n      sload\n      dup2\n      lt\n      tag_30\n      jumpi\n      tag_31\n      tag_32\n      jump\t// in\n    tag_31:\n    tag_30:\n      swap1\n      0x00\n      mstore\n      keccak256(0x00, 0x20)\n      swap1\n      0x02\n      mul\n      add\n        /* \"contracts/Mapping.sol\":3195:3228  Todo storage todo = todos[_index] */\n      swap1\n      pop\n        /* \"contracts/Mapping.sol\":3257:3261  todo */\n      dup1\n        /* \"contracts/Mapping.sol\":3257:3271  todo.completed */\n      0x01\n      add\n      0x00\n      swap1\n      sload\n      swap1\n      0x0100\n      exp\n      swap1\n      div\n      0xff\n      and\n        /* \"contracts/Mapping.sol\":3256:3271  !todo.completed */\n      iszero\n        /* \"contracts/Mapping.sol\":3239:3243  todo */\n      dup2\n        /* \"contracts/Mapping.sol\":3239:3253  todo.completed */\n      0x01\n      add\n      0x00\n        /* \"contracts/Mapping.sol\":3239:3271  todo.completed = !todo.completed */\n      0x0100\n      exp\n      dup2\n      sload\n      dup2\n      0xff\n      mul\n      not\n      and\n      swap1\n      dup4\n      iszero\n      iszero\n      mul\n      or\n      swap1\n      sstore\n      pop\n        /* \"contracts/Mapping.sol\":3184:3279  {... */\n      pop\n        /* \"contracts/Mapping.sol\":3139:3279  function toggleCompleted(uint _index) public {... */\n      pop\n      jump\t// out\n        /* \"contracts/Mapping.sol\":2804:2981  function get(uint _index) public view returns(string memory text, bool completed){... */\n    tag_14:\n        /* \"contracts/Mapping.sol\":2850:2868  string memory text */\n      0x60\n        /* \"contracts/Mapping.sol\":2870:2884  bool completed */\n      0x00\n        /* \"contracts/Mapping.sol\":2896:2913  Todo storage todo */\n      dup1\n        /* \"contracts/Mapping.sol\":2914:2919  todos */\n      0x00\n        /* \"contracts/Mapping.sol\":2920:2926  _index */\n      dup5\n        /* \"contracts/Mapping.sol\":2914:2927  todos[_index] */\n      dup2\n      sload\n      dup2\n      lt\n      tag_35\n      jumpi\n      tag_36\n      tag_32\n      jump\t// in\n    tag_36:\n    tag_35:\n      swap1\n      0x00\n      mstore\n      keccak256(0x00, 0x20)\n      swap1\n      0x02\n      mul\n      add\n        /* \"contracts/Mapping.sol\":2896:2927  Todo storage todo=todos[_index] */\n      swap1\n      pop\n        /* \"contracts/Mapping.sol\":2945:2949  todo */\n      dup1\n        /* \"contracts/Mapping.sol\":2945:2957  todo.textvar */\n      0x00\n      add\n        /* \"contracts/Mapping.sol\":2958:2962  todo */\n      dup2\n        /* \"contracts/Mapping.sol\":2958:2972  todo.completed */\n      0x01\n      add\n      0x00\n      swap1\n      sload\n      swap1\n      0x0100\n      exp\n      swap1\n      div\n      0xff\n      and\n        /* \"contracts/Mapping.sol\":2938:2973  return(todo.textvar,todo.completed) */\n      dup2\n      dup1\n      sload\n      tag_38\n      swap1\n      tag_39\n      jump\t// in\n    tag_38:\n      dup1\n      0x1f\n      add\n      0x20\n      dup1\n      swap2\n      div\n      mul\n      0x20\n      add\n      mload(0x40)\n      swap1\n      dup2\n      add\n      0x40\n      mstore\n      dup1\n      swap3\n      swap2\n      swap1\n      dup2\n      dup2\n      mstore\n      0x20\n      add\n      dup3\n      dup1\n      sload\n      tag_40\n      swap1\n      tag_39\n      jump\t// in\n    tag_40:\n      dup1\n      iszero\n      tag_41\n      jumpi\n      dup1\n      0x1f\n      lt\n      tag_42\n      jumpi\n      0x0100\n      dup1\n      dup4\n      sload\n      div\n      mul\n      dup4\n      mstore\n      swap2\n      0x20\n      add\n      swap2\n      jump(tag_41)\n    tag_42:\n      dup3\n      add\n      swap2\n      swap1\n      0x00\n      mstore\n      keccak256(0x00, 0x20)\n      swap1\n    tag_43:\n      dup2\n      sload\n      dup2\n      mstore\n      swap1\n      0x01\n      add\n      swap1\n      0x20\n      add\n      dup1\n      dup4\n      gt\n      tag_43\n      jumpi\n      dup3\n      swap1\n      sub\n      0x1f\n      and\n      dup3\n      add\n      swap2\n    tag_41:\n      pop\n      pop\n      pop\n      pop\n      pop\n      swap2\n      pop\n      swap3\n      pop\n      swap3\n      pop\n      pop\n        /* \"contracts/Mapping.sol\":2804:2981  function get(uint _index) public view returns(string memory text, bool completed){... */\n      swap2\n      pop\n      swap2\n      jump\t// out\n        /* \"contracts/Mapping.sol\":2625:2795  function create(string calldata _text) public {... */\n    tag_20:\n        /* \"contracts/Mapping.sol\":2724:2729  todos */\n      0x00\n        /* \"contracts/Mapping.sol\":2735:2774  Todo({textvar: _text, completed:false}) */\n      mload(0x40)\n      dup1\n      0x40\n      add\n      0x40\n      mstore\n      dup1\n        /* \"contracts/Mapping.sol\":2750:2755  _text */\n      dup5\n      dup5\n        /* \"contracts/Mapping.sol\":2735:2774  Todo({textvar: _text, completed:false}) */\n      dup1\n      dup1\n      0x1f\n      add\n      0x20\n      dup1\n      swap2\n      div\n      mul\n      0x20\n      add\n      mload(0x40)\n      swap1\n      dup2\n      add\n      0x40\n      mstore\n      dup1\n      swap4\n      swap3\n      swap2\n      swap1\n      dup2\n      dup2\n      mstore\n      0x20\n      add\n      dup4\n      dup4\n      dup1\n      dup3\n      dup5\n      calldatacopy\n      0x00\n      dup2\n      dup5\n      add\n      mstore\n      not(0x1f)\n      0x1f\n      dup3\n      add\n      and\n      swap1\n      pop\n      dup1\n      dup4\n      add\n      swap3\n      pop\n      pop\n      pop\n      pop\n      pop\n      pop\n      pop\n      dup2\n      mstore\n      0x20\n      add\n        /* \"contracts/Mapping.sol\":2767:2772  false */\n      0x00\n        /* \"contracts/Mapping.sol\":2735:2774  Todo({textvar: _text, completed:false}) */\n      iszero\n      iszero\n      dup2\n      mstore\n      pop\n        /* \"contracts/Mapping.sol\":2724:2775  todos.push(Todo({textvar: _text, completed:false})) */\n      swap1\n      dup1\n      0x01\n      dup2\n      sload\n      add\n      dup1\n      dup3\n      sstore\n      dup1\n      swap2\n      pop\n      pop\n      0x01\n      swap1\n      sub\n      swap1\n      0x00\n      mstore\n      keccak256(0x00, 0x20)\n      swap1\n      0x02\n      mul\n      add\n      0x00\n      swap1\n      swap2\n      swap1\n      swap2\n      swap1\n      swap2\n      pop\n      0x00\n      dup3\n      add\n      mload\n      dup2\n      0x00\n      add\n      swap1\n      dup2\n      tag_46\n      swap2\n      swap1\n      tag_47\n      jump\t// in\n    tag_46:\n      pop\n      0x20\n      dup3\n      add\n      mload\n      dup2\n      0x01\n      add\n      exp(0x0100, 0x00)\n      dup2\n      sload\n      dup2\n      0xff\n      mul\n      not\n      and\n      swap1\n      dup4\n      iszero\n      iszero\n      mul\n      or\n      swap1\n      sstore\n      pop\n      pop\n      pop\n        /* \"contracts/Mapping.sol\":2625:2795  function create(string calldata _text) public {... */\n      pop\n      pop\n      jump\t// out\n        /* \"contracts/Mapping.sol\":2597:2616  Todo[] public todos */\n    tag_23:\n      0x00\n      dup2\n      dup2\n      sload\n      dup2\n      lt\n      tag_48\n      jumpi\n      0x00\n      dup1\n      revert\n    tag_48:\n      swap1\n      0x00\n      mstore\n      keccak256(0x00, 0x20)\n      swap1\n      0x02\n      mul\n      add\n      0x00\n      swap2\n      pop\n      swap1\n      pop\n      dup1\n      0x00\n      add\n      dup1\n      sload\n      tag_50\n      swap1\n      tag_39\n      jump\t// in\n    tag_50:\n      dup1\n      0x1f\n      add\n      0x20\n      dup1\n      swap2\n      div\n      mul\n      0x20\n      add\n      mload(0x40)\n      swap1\n      dup2\n      add\n      0x40\n      mstore\n      dup1\n      swap3\n      swap2\n      swap1\n      dup2\n      dup2\n      mstore\n      0x20\n      add\n      dup3\n      dup1\n      sload\n      tag_51\n      swap1\n      tag_39\n      jump\t// in\n    tag_51:\n      dup1\n      iszero\n      tag_52\n      jumpi\n      dup1\n      0x1f\n      lt\n      tag_53\n      jumpi\n      0x0100\n      dup1\n      dup4\n      sload\n      div\n      mul\n      dup4\n      mstore\n      swap2\n      0x20\n      add\n      swap2\n      jump(tag_52)\n    tag_53:\n      dup3\n      add\n      swap2\n      swap1\n      0x00\n      mstore\n      keccak256(0x00, 0x20)\n      swap1\n    tag_54:\n      dup2\n      sload\n      dup2\n      mstore\n      swap1\n      0x01\n      add\n      swap1\n      0x20\n      add\n      dup1\n      dup4\n      gt\n      tag_54\n      jumpi\n      dup3\n      swap1\n      sub\n      0x1f\n      and\n      dup3\n      add\n      swap2\n    tag_52:\n      pop\n      pop\n      pop\n      pop\n      pop\n      swap1\n      dup1\n      0x01\n      add\n      0x00\n      swap1\n      sload\n      swap1\n      0x0100\n      exp\n      swap1\n      div\n      0xff\n      and\n      swap1\n      pop\n      dup3\n      jump\t// out\n        /* \"contracts/Mapping.sol\":2989:3131  function updateText(uint _index, string calldata _text)public{... */\n    tag_28:\n        /* \"contracts/Mapping.sol\":3061:3078  Todo storage todo */\n      0x00\n        /* \"contracts/Mapping.sol\":3081:3086  todos */\n      dup1\n        /* \"contracts/Mapping.sol\":3087:3093  _index */\n      dup5\n        /* \"contracts/Mapping.sol\":3081:3094  todos[_index] */\n      dup2\n      sload\n      dup2\n      lt\n      tag_56\n      jumpi\n      tag_57\n      tag_32\n      jump\t// in\n    tag_57:\n    tag_56:\n      swap1\n      0x00\n      mstore\n      keccak256(0x00, 0x20)\n      swap1\n      0x02\n      mul\n      add\n        /* \"contracts/Mapping.sol\":3061:3094  Todo storage todo = todos[_index] */\n      swap1\n      pop\n        /* \"contracts/Mapping.sol\":3118:3123  _text */\n      dup3\n      dup3\n        /* \"contracts/Mapping.sol\":3105:3109  todo */\n      dup3\n        /* \"contracts/Mapping.sol\":3105:3117  todo.textvar */\n      0x00\n      add\n        /* \"contracts/Mapping.sol\":3105:3123  todo.textvar=_text */\n      swap2\n      dup3\n      tag_59\n      swap3\n      swap2\n      swap1\n      tag_60\n      jump\t// in\n    tag_59:\n      pop\n        /* \"contracts/Mapping.sol\":3050:3131  {... */\n      pop\n        /* \"contracts/Mapping.sol\":2989:3131  function updateText(uint _index, string calldata _text)public{... */\n      pop\n      pop\n      pop\n      jump\t// out\n        /* \"#utility.yul\":88:205   */\n    tag_62:\n        /* \"#utility.yul\":197:198   */\n      0x00\n        /* \"#utility.yul\":194:195   */\n      dup1\n        /* \"#utility.yul\":187:199   */\n      revert\n        /* \"#utility.yul\":211:328   */\n    tag_63:\n        /* \"#utility.yul\":320:321   */\n      0x00\n        /* \"#utility.yul\":317:318   */\n      dup1\n        /* \"#utility.yul\":310:322   */\n      revert\n        /* \"#utility.yul\":334:411   */\n    tag_64:\n        /* \"#utility.yul\":371:378   */\n      0x00\n        /* \"#utility.yul\":400:405   */\n      dup2\n        /* \"#utility.yul\":389:405   */\n      swap1\n      pop\n        /* \"#utility.yul\":334:411   */\n      swap2\n      swap1\n      pop\n      jump\t// out\n        /* \"#utility.yul\":417:539   */\n    tag_65:\n        /* \"#utility.yul\":490:514   */\n      tag_102\n        /* \"#utility.yul\":508:513   */\n      dup2\n        /* \"#utility.yul\":490:514   */\n      tag_64\n      jump\t// in\n    tag_102:\n        /* \"#utility.yul\":483:488   */\n      dup2\n        /* \"#utility.yul\":480:515   */\n      eq\n        /* \"#utility.yul\":470:533   */\n      tag_103\n      jumpi\n        /* \"#utility.yul\":529:530   */\n      0x00\n        /* \"#utility.yul\":526:527   */\n      dup1\n        /* \"#utility.yul\":519:531   */\n      revert\n        /* \"#utility.yul\":470:533   */\n    tag_103:\n        /* \"#utility.yul\":417:539   */\n      pop\n      jump\t// out\n        /* \"#utility.yul\":545:684   */\n    tag_66:\n        /* \"#utility.yul\":591:596   */\n      0x00\n        /* \"#utility.yul\":629:635   */\n      dup2\n        /* \"#utility.yul\":616:636   */\n      calldataload\n        /* \"#utility.yul\":607:636   */\n      swap1\n      pop\n        /* \"#utility.yul\":645:678   */\n      tag_105\n        /* \"#utility.yul\":672:677   */\n      dup2\n        /* \"#utility.yul\":645:678   */\n      tag_65\n      jump\t// in\n    tag_105:\n        /* \"#utility.yul\":545:684   */\n      swap3\n      swap2\n      pop\n      pop\n      jump\t// out\n        /* \"#utility.yul\":690:1019   */\n    tag_10:\n        /* \"#utility.yul\":749:755   */\n      0x00\n        /* \"#utility.yul\":798:800   */\n      0x20\n        /* \"#utility.yul\":786:795   */\n      dup3\n        /* \"#utility.yul\":777:784   */\n      dup5\n        /* \"#utility.yul\":773:796   */\n      sub\n        /* \"#utility.yul\":769:801   */\n      slt\n        /* \"#utility.yul\":766:885   */\n      iszero\n      tag_107\n      jumpi\n        /* \"#utility.yul\":804:883   */\n      tag_108\n      tag_62\n      jump\t// in\n    tag_108:\n        /* \"#utility.yul\":766:885   */\n    tag_107:\n        /* \"#utility.yul\":924:925   */\n      0x00\n        /* \"#utility.yul\":949:1002   */\n      tag_109\n        /* \"#utility.yul\":994:1001   */\n      dup5\n        /* \"#utility.yul\":985:991   */\n      dup3\n        /* \"#utility.yul\":974:983   */\n      dup6\n        /* \"#utility.yul\":970:992   */\n      add\n        /* \"#utility.yul\":949:1002   */\n      tag_66\n      jump\t// in\n    tag_109:\n        /* \"#utility.yul\":939:1002   */\n      swap2\n      pop\n        /* \"#utility.yul\":895:1012   */\n      pop\n        /* \"#utility.yul\":690:1019   */\n      swap3\n      swap2\n      pop\n      pop\n      jump\t// out\n        /* \"#utility.yul\":1025:1124   */\n    tag_67:\n        /* \"#utility.yul\":1077:1083   */\n      0x00\n        /* \"#utility.yul\":1111:1116   */\n      dup2\n        /* \"#utility.yul\":1105:1117   */\n      mload\n        /* \"#utility.yul\":1095:1117   */\n      swap1\n      pop\n        /* \"#utility.yul\":1025:1124   */\n      swap2\n      swap1\n      pop\n      jump\t// out\n        /* \"#utility.yul\":1130:1299   */\n    tag_68:\n        /* \"#utility.yul\":1214:1225   */\n      0x00\n        /* \"#utility.yul\":1248:1254   */\n      dup3\n        /* \"#utility.yul\":1243:1246   */\n      dup3\n        /* \"#utility.yul\":1236:1255   */\n      mstore\n        /* \"#utility.yul\":1288:1292   */\n      0x20\n        /* \"#utility.yul\":1283:1286   */\n      dup3\n        /* \"#utility.yul\":1279:1293   */\n      add\n        /* \"#utility.yul\":1264:1293   */\n      swap1\n      pop\n        /* \"#utility.yul\":1130:1299   */\n      swap3\n      swap2\n      pop\n      pop\n      jump\t// out\n        /* \"#utility.yul\":1305:1551   */\n    tag_69:\n        /* \"#utility.yul\":1386:1387   */\n      0x00\n        /* \"#utility.yul\":1396:1509   */\n    tag_113:\n        /* \"#utility.yul\":1410:1416   */\n      dup4\n        /* \"#utility.yul\":1407:1408   */\n      dup2\n        /* \"#utility.yul\":1404:1417   */\n      lt\n        /* \"#utility.yul\":1396:1509   */\n      iszero\n      tag_115\n      jumpi\n        /* \"#utility.yul\":1495:1496   */\n      dup1\n        /* \"#utility.yul\":1490:1493   */\n      dup3\n        /* \"#utility.yul\":1486:1497   */\n      add\n        /* \"#utility.yul\":1480:1498   */\n      mload\n        /* \"#utility.yul\":1476:1477   */\n      dup2\n        /* \"#utility.yul\":1471:1474   */\n      dup5\n        /* \"#utility.yul\":1467:1478   */\n      add\n        /* \"#utility.yul\":1460:1499   */\n      mstore\n        /* \"#utility.yul\":1432:1434   */\n      0x20\n        /* \"#utility.yul\":1429:1430   */\n      dup2\n        /* \"#utility.yul\":1425:1435   */\n      add\n        /* \"#utility.yul\":1420:1435   */\n      swap1\n      pop\n        /* \"#utility.yul\":1396:1509   */\n      jump(tag_113)\n    tag_115:\n        /* \"#utility.yul\":1543:1544   */\n      0x00\n        /* \"#utility.yul\":1534:1540   */\n      dup5\n        /* \"#utility.yul\":1529:1532   */\n      dup5\n        /* \"#utility.yul\":1525:1541   */\n      add\n        /* \"#utility.yul\":1518:1545   */\n      mstore\n        /* \"#utility.yul\":1367:1551   */\n      pop\n        /* \"#utility.yul\":1305:1551   */\n      pop\n      pop\n      pop\n      jump\t// out\n        /* \"#utility.yul\":1557:1659   */\n    tag_70:\n        /* \"#utility.yul\":1598:1604   */\n      0x00\n        /* \"#utility.yul\":1649:1651   */\n      0x1f\n        /* \"#utility.yul\":1645:1652   */\n      not\n        /* \"#utility.yul\":1640:1642   */\n      0x1f\n        /* \"#utility.yul\":1633:1638   */\n      dup4\n        /* \"#utility.yul\":1629:1643   */\n      add\n        /* \"#utility.yul\":1625:1653   */\n      and\n        /* \"#utility.yul\":1615:1653   */\n      swap1\n      pop\n        /* \"#utility.yul\":1557:1659   */\n      swap2\n      swap1\n      pop\n      jump\t// out\n        /* \"#utility.yul\":1665:2042   */\n    tag_71:\n        /* \"#utility.yul\":1753:1756   */\n      0x00\n        /* \"#utility.yul\":1781:1820   */\n      tag_118\n        /* \"#utility.yul\":1814:1819   */\n      dup3\n        /* \"#utility.yul\":1781:1820   */\n      tag_67\n      jump\t// in\n    tag_118:\n        /* \"#utility.yul\":1836:1907   */\n      tag_119\n        /* \"#utility.yul\":1900:1906   */\n      dup2\n        /* \"#utility.yul\":1895:1898   */\n      dup6\n        /* \"#utility.yul\":1836:1907   */\n      tag_68\n      jump\t// in\n    tag_119:\n        /* \"#utility.yul\":1829:1907   */\n      swap4\n      pop\n        /* \"#utility.yul\":1916:1981   */\n      tag_120\n        /* \"#utility.yul\":1974:1980   */\n      dup2\n        /* \"#utility.yul\":1969:1972   */\n      dup6\n        /* \"#utility.yul\":1962:1966   */\n      0x20\n        /* \"#utility.yul\":1955:1960   */\n      dup7\n        /* \"#utility.yul\":1951:1967   */\n      add\n        /* \"#utility.yul\":1916:1981   */\n      tag_69\n      jump\t// in\n    tag_120:\n        /* \"#utility.yul\":2006:2035   */\n      tag_121\n        /* \"#utility.yul\":2028:2034   */\n      dup2\n        /* \"#utility.yul\":2006:2035   */\n      tag_70\n      jump\t// in\n    tag_121:\n        /* \"#utility.yul\":2001:2004   */\n      dup5\n        /* \"#utility.yul\":1997:2036   */\n      add\n        /* \"#utility.yul\":1990:2036   */\n      swap2\n      pop\n        /* \"#utility.yul\":1757:2042   */\n      pop\n        /* \"#utility.yul\":1665:2042   */\n      swap3\n      swap2\n      pop\n      pop\n      jump\t// out\n        /* \"#utility.yul\":2048:2138   */\n    tag_72:\n        /* \"#utility.yul\":2082:2089   */\n      0x00\n        /* \"#utility.yul\":2125:2130   */\n      dup2\n        /* \"#utility.yul\":2118:2131   */\n      iszero\n        /* \"#utility.yul\":2111:2132   */\n      iszero\n        /* \"#utility.yul\":2100:2132   */\n      swap1\n      pop\n        /* \"#utility.yul\":2048:2138   */\n      swap2\n      swap1\n      pop\n      jump\t// out\n        /* \"#utility.yul\":2144:2253   */\n    tag_73:\n        /* \"#utility.yul\":2225:2246   */\n      tag_124\n        /* \"#utility.yul\":2240:2245   */\n      dup2\n        /* \"#utility.yul\":2225:2246   */\n      tag_72\n      jump\t// in\n    tag_124:\n        /* \"#utility.yul\":2220:2223   */\n      dup3\n        /* \"#utility.yul\":2213:2247   */\n      mstore\n        /* \"#utility.yul\":2144:2253   */\n      pop\n      pop\n      jump\t// out\n        /* \"#utility.yul\":2259:2670   */\n    tag_16:\n        /* \"#utility.yul\":2394:2398   */\n      0x00\n        /* \"#utility.yul\":2432:2434   */\n      0x40\n        /* \"#utility.yul\":2421:2430   */\n      dup3\n        /* \"#utility.yul\":2417:2435   */\n      add\n        /* \"#utility.yul\":2409:2435   */\n      swap1\n      pop\n        /* \"#utility.yul\":2481:2490   */\n      dup2\n        /* \"#utility.yul\":2475:2479   */\n      dup2\n        /* \"#utility.yul\":2471:2491   */\n      sub\n        /* \"#utility.yul\":2467:2468   */\n      0x00\n        /* \"#utility.yul\":2456:2465   */\n      dup4\n        /* \"#utility.yul\":2452:2469   */\n      add\n        /* \"#utility.yul\":2445:2492   */\n      mstore\n        /* \"#utility.yul\":2509:2587   */\n      tag_126\n        /* \"#utility.yul\":2582:2586   */\n      dup2\n        /* \"#utility.yul\":2573:2579   */\n      dup6\n        /* \"#utility.yul\":2509:2587   */\n      tag_71\n      jump\t// in\n    tag_126:\n        /* \"#utility.yul\":2501:2587   */\n      swap1\n      pop\n        /* \"#utility.yul\":2597:2663   */\n      tag_127\n        /* \"#utility.yul\":2659:2661   */\n      0x20\n        /* \"#utility.yul\":2648:2657   */\n      dup4\n        /* \"#utility.yul\":2644:2662   */\n      add\n        /* \"#utility.yul\":2635:2641   */\n      dup5\n        /* \"#utility.yul\":2597:2663   */\n      tag_73\n      jump\t// in\n    tag_127:\n        /* \"#utility.yul\":2259:2670   */\n      swap4\n      swap3\n      pop\n      pop\n      pop\n      jump\t// out\n        /* \"#utility.yul\":2676:2793   */\n    tag_74:\n        /* \"#utility.yul\":2785:2786   */\n      0x00\n        /* \"#utility.yul\":2782:2783   */\n      dup1\n        /* \"#utility.yul\":2775:2787   */\n      revert\n        /* \"#utility.yul\":2799:2916   */\n    tag_75:\n        /* \"#utility.yul\":2908:2909   */\n      0x00\n        /* \"#utility.yul\":2905:2906   */\n      dup1\n        /* \"#utility.yul\":2898:2910   */\n      revert\n        /* \"#utility.yul\":2922:3039   */\n    tag_76:\n        /* \"#utility.yul\":3031:3032   */\n      0x00\n        /* \"#utility.yul\":3028:3029   */\n      dup1\n        /* \"#utility.yul\":3021:3033   */\n      revert\n        /* \"#utility.yul\":3059:3612   */\n    tag_77:\n        /* \"#utility.yul\":3117:3125   */\n      0x00\n        /* \"#utility.yul\":3127:3133   */\n      dup1\n        /* \"#utility.yul\":3177:3180   */\n      dup4\n        /* \"#utility.yul\":3170:3174   */\n      0x1f\n        /* \"#utility.yul\":3162:3168   */\n      dup5\n        /* \"#utility.yul\":3158:3175   */\n      add\n        /* \"#utility.yul\":3154:3181   */\n      slt\n        /* \"#utility.yul\":3144:3266   */\n      tag_132\n      jumpi\n        /* \"#utility.yul\":3185:3264   */\n      tag_133\n      tag_74\n      jump\t// in\n    tag_133:\n        /* \"#utility.yul\":3144:3266   */\n    tag_132:\n        /* \"#utility.yul\":3298:3304   */\n      dup3\n        /* \"#utility.yul\":3285:3305   */\n      calldataload\n        /* \"#utility.yul\":3275:3305   */\n      swap1\n      pop\n        /* \"#utility.yul\":3328:3346   */\n      0xffffffffffffffff\n        /* \"#utility.yul\":3320:3326   */\n      dup2\n        /* \"#utility.yul\":3317:3347   */\n      gt\n        /* \"#utility.yul\":3314:3431   */\n      iszero\n      tag_134\n      jumpi\n        /* \"#utility.yul\":3350:3429   */\n      tag_135\n      tag_75\n      jump\t// in\n    tag_135:\n        /* \"#utility.yul\":3314:3431   */\n    tag_134:\n        /* \"#utility.yul\":3464:3468   */\n      0x20\n        /* \"#utility.yul\":3456:3462   */\n      dup4\n        /* \"#utility.yul\":3452:3469   */\n      add\n        /* \"#utility.yul\":3440:3469   */\n      swap2\n      pop\n        /* \"#utility.yul\":3518:3521   */\n      dup4\n        /* \"#utility.yul\":3510:3514   */\n      0x01\n        /* \"#utility.yul\":3502:3508   */\n      dup3\n        /* \"#utility.yul\":3498:3515   */\n      mul\n        /* \"#utility.yul\":3488:3496   */\n      dup4\n        /* \"#utility.yul\":3484:3516   */\n      add\n        /* \"#utility.yul\":3481:3522   */\n      gt\n        /* \"#utility.yul\":3478:3606   */\n      iszero\n      tag_136\n      jumpi\n        /* \"#utility.yul\":3525:3604   */\n      tag_137\n      tag_76\n      jump\t// in\n    tag_137:\n        /* \"#utility.yul\":3478:3606   */\n    tag_136:\n        /* \"#utility.yul\":3059:3612   */\n      swap3\n      pop\n      swap3\n      swap1\n      pop\n      jump\t// out\n        /* \"#utility.yul\":3618:4147   */\n    tag_19:\n        /* \"#utility.yul\":3689:3695   */\n      0x00\n        /* \"#utility.yul\":3697:3703   */\n      dup1\n        /* \"#utility.yul\":3746:3748   */\n      0x20\n        /* \"#utility.yul\":3734:3743   */\n      dup4\n        /* \"#utility.yul\":3725:3732   */\n      dup6\n        /* \"#utility.yul\":3721:3744   */\n      sub\n        /* \"#utility.yul\":3717:3749   */\n      slt\n        /* \"#utility.yul\":3714:3833   */\n      iszero\n      tag_139\n      jumpi\n        /* \"#utility.yul\":3752:3831   */\n      tag_140\n      tag_62\n      jump\t// in\n    tag_140:\n        /* \"#utility.yul\":3714:3833   */\n    tag_139:\n        /* \"#utility.yul\":3900:3901   */\n      0x00\n        /* \"#utility.yul\":3889:3898   */\n      dup4\n        /* \"#utility.yul\":3885:3902   */\n      add\n        /* \"#utility.yul\":3872:3903   */\n      calldataload\n        /* \"#utility.yul\":3930:3948   */\n      0xffffffffffffffff\n        /* \"#utility.yul\":3922:3928   */\n      dup2\n        /* \"#utility.yul\":3919:3949   */\n      gt\n        /* \"#utility.yul\":3916:4033   */\n      iszero\n      tag_141\n      jumpi\n        /* \"#utility.yul\":3952:4031   */\n      tag_142\n      tag_63\n      jump\t// in\n    tag_142:\n        /* \"#utility.yul\":3916:4033   */\n    tag_141:\n        /* \"#utility.yul\":4065:4130   */\n      tag_143\n        /* \"#utility.yul\":4122:4129   */\n      dup6\n        /* \"#utility.yul\":4113:4119   */\n      dup3\n        /* \"#utility.yul\":4102:4111   */\n      dup7\n        /* \"#utility.yul\":4098:4120   */\n      add\n        /* \"#utility.yul\":4065:4130   */\n      tag_77\n      jump\t// in\n    tag_143:\n        /* \"#utility.yul\":4047:4130   */\n      swap3\n      pop\n      swap3\n      pop\n        /* \"#utility.yul\":3843:4140   */\n      pop\n        /* \"#utility.yul\":3618:4147   */\n      swap3\n      pop\n      swap3\n      swap1\n      pop\n      jump\t// out\n        /* \"#utility.yul\":4153:4827   */\n    tag_27:\n        /* \"#utility.yul\":4233:4239   */\n      0x00\n        /* \"#utility.yul\":4241:4247   */\n      dup1\n        /* \"#utility.yul\":4249:4255   */\n      0x00\n        /* \"#utility.yul\":4298:4300   */\n      0x40\n        /* \"#utility.yul\":4286:4295   */\n      dup5\n        /* \"#utility.yul\":4277:4284   */\n      dup7\n        /* \"#utility.yul\":4273:4296   */\n      sub\n        /* \"#utility.yul\":4269:4301   */\n      slt\n        /* \"#utility.yul\":4266:4385   */\n      iszero\n      tag_145\n      jumpi\n        /* \"#utility.yul\":4304:4383   */\n      tag_146\n      tag_62\n      jump\t// in\n    tag_146:\n        /* \"#utility.yul\":4266:4385   */\n    tag_145:\n        /* \"#utility.yul\":4424:4425   */\n      0x00\n        /* \"#utility.yul\":4449:4502   */\n      tag_147\n        /* \"#utility.yul\":4494:4501   */\n      dup7\n        /* \"#utility.yul\":4485:4491   */\n      dup3\n        /* \"#utility.yul\":4474:4483   */\n      dup8\n        /* \"#utility.yul\":4470:4492   */\n      add\n        /* \"#utility.yul\":4449:4502   */\n      tag_66\n      jump\t// in\n    tag_147:\n        /* \"#utility.yul\":4439:4502   */\n      swap4\n      pop\n        /* \"#utility.yul\":4395:4512   */\n      pop\n        /* \"#utility.yul\":4579:4581   */\n      0x20\n        /* \"#utility.yul\":4568:4577   */\n      dup5\n        /* \"#utility.yul\":4564:4582   */\n      add\n        /* \"#utility.yul\":4551:4583   */\n      calldataload\n        /* \"#utility.yul\":4610:4628   */\n      0xffffffffffffffff\n        /* \"#utility.yul\":4602:4608   */\n      dup2\n        /* \"#utility.yul\":4599:4629   */\n      gt\n        /* \"#utility.yul\":4596:4713   */\n      iszero\n      tag_148\n      jumpi\n        /* \"#utility.yul\":4632:4711   */\n      tag_149\n      tag_63\n      jump\t// in\n    tag_149:\n        /* \"#utility.yul\":4596:4713   */\n    tag_148:\n        /* \"#utility.yul\":4745:4810   */\n      tag_150\n        /* \"#utility.yul\":4802:4809   */\n      dup7\n        /* \"#utility.yul\":4793:4799   */\n      dup3\n        /* \"#utility.yul\":4782:4791   */\n      dup8\n        /* \"#utility.yul\":4778:4800   */\n      add\n        /* \"#utility.yul\":4745:4810   */\n      tag_77\n      jump\t// in\n    tag_150:\n        /* \"#utility.yul\":4727:4810   */\n      swap3\n      pop\n      swap3\n      pop\n        /* \"#utility.yul\":4522:4820   */\n      pop\n        /* \"#utility.yul\":4153:4827   */\n      swap3\n      pop\n      swap3\n      pop\n      swap3\n      jump\t// out\n        /* \"#utility.yul\":4833:5013   */\n    tag_32:\n        /* \"#utility.yul\":4881:4958   */\n      0x4e487b7100000000000000000000000000000000000000000000000000000000\n        /* \"#utility.yul\":4878:4879   */\n      0x00\n        /* \"#utility.yul\":4871:4959   */\n      mstore\n        /* \"#utility.yul\":4978:4982   */\n      0x32\n        /* \"#utility.yul\":4975:4976   */\n      0x04\n        /* \"#utility.yul\":4968:4983   */\n      mstore\n        /* \"#utility.yul\":5002:5006   */\n      0x24\n        /* \"#utility.yul\":4999:5000   */\n      0x00\n        /* \"#utility.yul\":4992:5007   */\n      revert\n        /* \"#utility.yul\":5019:5199   */\n    tag_78:\n        /* \"#utility.yul\":5067:5144   */\n      0x4e487b7100000000000000000000000000000000000000000000000000000000\n        /* \"#utility.yul\":5064:5065   */\n      0x00\n        /* \"#utility.yul\":5057:5145   */\n      mstore\n        /* \"#utility.yul\":5164:5168   */\n      0x22\n        /* \"#utility.yul\":5161:5162   */\n      0x04\n        /* \"#utility.yul\":5154:5169   */\n      mstore\n        /* \"#utility.yul\":5188:5192   */\n      0x24\n        /* \"#utility.yul\":5185:5186   */\n      0x00\n        /* \"#utility.yul\":5178:5193   */\n      revert\n        /* \"#utility.yul\":5205:5525   */\n    tag_39:\n        /* \"#utility.yul\":5249:5255   */\n      0x00\n        /* \"#utility.yul\":5286:5287   */\n      0x02\n        /* \"#utility.yul\":5280:5284   */\n      dup3\n        /* \"#utility.yul\":5276:5288   */\n      div\n        /* \"#utility.yul\":5266:5288   */\n      swap1\n      pop\n        /* \"#utility.yul\":5333:5334   */\n      0x01\n        /* \"#utility.yul\":5327:5331   */\n      dup3\n        /* \"#utility.yul\":5323:5335   */\n      and\n        /* \"#utility.yul\":5354:5372   */\n      dup1\n        /* \"#utility.yul\":5344:5425   */\n      tag_154\n      jumpi\n        /* \"#utility.yul\":5410:5414   */\n      0x7f\n        /* \"#utility.yul\":5402:5408   */\n      dup3\n        /* \"#utility.yul\":5398:5415   */\n      and\n        /* \"#utility.yul\":5388:5415   */\n      swap2\n      pop\n        /* \"#utility.yul\":5344:5425   */\n    tag_154:\n        /* \"#utility.yul\":5472:5474   */\n      0x20\n        /* \"#utility.yul\":5464:5470   */\n      dup3\n        /* \"#utility.yul\":5461:5475   */\n      lt\n        /* \"#utility.yul\":5441:5459   */\n      dup2\n        /* \"#utility.yul\":5438:5476   */\n      sub\n        /* \"#utility.yul\":5435:5519   */\n      tag_155\n      jumpi\n        /* \"#utility.yul\":5491:5509   */\n      tag_156\n      tag_78\n      jump\t// in\n    tag_156:\n        /* \"#utility.yul\":5435:5519   */\n    tag_155:\n        /* \"#utility.yul\":5256:5525   */\n      pop\n        /* \"#utility.yul\":5205:5525   */\n      swap2\n      swap1\n      pop\n      jump\t// out\n        /* \"#utility.yul\":5531:5711   */\n    tag_79:\n        /* \"#utility.yul\":5579:5656   */\n      0x4e487b7100000000000000000000000000000000000000000000000000000000\n        /* \"#utility.yul\":5576:5577   */\n      0x00\n        /* \"#utility.yul\":5569:5657   */\n      mstore\n        /* \"#utility.yul\":5676:5680   */\n      0x41\n        /* \"#utility.yul\":5673:5674   */\n      0x04\n        /* \"#utility.yul\":5666:5681   */\n      mstore\n        /* \"#utility.yul\":5700:5704   */\n      0x24\n        /* \"#utility.yul\":5697:5698   */\n      0x00\n        /* \"#utility.yul\":5690:5705   */\n      revert\n        /* \"#utility.yul\":5717:5858   */\n    tag_80:\n        /* \"#utility.yul\":5766:5770   */\n      0x00\n        /* \"#utility.yul\":5789:5792   */\n      dup2\n        /* \"#utility.yul\":5781:5792   */\n      swap1\n      pop\n        /* \"#utility.yul\":5812:5815   */\n      dup2\n        /* \"#utility.yul\":5809:5810   */\n      0x00\n        /* \"#utility.yul\":5802:5816   */\n      mstore\n        /* \"#utility.yul\":5846:5850   */\n      0x20\n        /* \"#utility.yul\":5843:5844   */\n      0x00\n        /* \"#utility.yul\":5833:5851   */\n      keccak256\n        /* \"#utility.yul\":5825:5851   */\n      swap1\n      pop\n        /* \"#utility.yul\":5717:5858   */\n      swap2\n      swap1\n      pop\n      jump\t// out\n        /* \"#utility.yul\":5864:5957   */\n    tag_81:\n        /* \"#utility.yul\":5901:5907   */\n      0x00\n        /* \"#utility.yul\":5948:5950   */\n      0x20\n        /* \"#utility.yul\":5943:5945   */\n      0x1f\n        /* \"#utility.yul\":5936:5941   */\n      dup4\n        /* \"#utility.yul\":5932:5946   */\n      add\n        /* \"#utility.yul\":5928:5951   */\n      div\n        /* \"#utility.yul\":5918:5951   */\n      swap1\n      pop\n        /* \"#utility.yul\":5864:5957   */\n      swap2\n      swap1\n      pop\n      jump\t// out\n        /* \"#utility.yul\":5963:6070   */\n    tag_82:\n        /* \"#utility.yul\":6007:6015   */\n      0x00\n        /* \"#utility.yul\":6057:6062   */\n      dup3\n        /* \"#utility.yul\":6051:6055   */\n      dup3\n        /* \"#utility.yul\":6047:6063   */\n      shl\n        /* \"#utility.yul\":6026:6063   */\n      swap1\n      pop\n        /* \"#utility.yul\":5963:6070   */\n      swap3\n      swap2\n      pop\n      pop\n      jump\t// out\n        /* \"#utility.yul\":6076:6469   */\n    tag_83:\n        /* \"#utility.yul\":6145:6151   */\n      0x00\n        /* \"#utility.yul\":6195:6196   */\n      0x08\n        /* \"#utility.yul\":6183:6193   */\n      dup4\n        /* \"#utility.yul\":6179:6197   */\n      mul\n        /* \"#utility.yul\":6218:6315   */\n      tag_162\n        /* \"#utility.yul\":6248:6314   */\n      0xffffffffffffffffffffffffffffffffffffffffffffffffffffffffffffffff\n        /* \"#utility.yul\":6237:6246   */\n      dup3\n        /* \"#utility.yul\":6218:6315   */\n      tag_82\n      jump\t// in\n    tag_162:\n        /* \"#utility.yul\":6336:6375   */\n      tag_163\n        /* \"#utility.yul\":6366:6374   */\n      dup7\n        /* \"#utility.yul\":6355:6364   */\n      dup4\n        /* \"#utility.yul\":6336:6375   */\n      tag_82\n      jump\t// in\n    tag_163:\n        /* \"#utility.yul\":6324:6375   */\n      swap6\n      pop\n        /* \"#utility.yul\":6408:6412   */\n      dup1\n        /* \"#utility.yul\":6404:6413   */\n      not\n        /* \"#utility.yul\":6397:6402   */\n      dup5\n        /* \"#utility.yul\":6393:6414   */\n      and\n        /* \"#utility.yul\":6384:6414   */\n      swap4\n      pop\n        /* \"#utility.yul\":6457:6461   */\n      dup1\n        /* \"#utility.yul\":6447:6455   */\n      dup7\n        /* \"#utility.yul\":6443:6462   */\n      and\n        /* \"#utility.yul\":6436:6441   */\n      dup5\n        /* \"#utility.yul\":6433:6463   */\n      or\n        /* \"#utility.yul\":6423:6463   */\n      swap3\n      pop\n        /* \"#utility.yul\":6152:6469   */\n      pop\n      pop\n        /* \"#utility.yul\":6076:6469   */\n      swap4\n      swap3\n      pop\n      pop\n      pop\n      jump\t// out\n        /* \"#utility.yul\":6475:6535   */\n    tag_84:\n        /* \"#utility.yul\":6503:6506   */\n      0x00\n        /* \"#utility.yul\":6524:6529   */\n      dup2\n        /* \"#utility.yul\":6517:6529   */\n      swap1\n      pop\n        /* \"#utility.yul\":6475:6535   */\n      swap2\n      swap1\n      pop\n      jump\t// out\n        /* \"#utility.yul\":6541:6683   */\n    tag_85:\n        /* \"#utility.yul\":6591:6600   */\n      0x00\n        /* \"#utility.yul\":6624:6677   */\n      tag_166\n        /* \"#utility.yul\":6642:6676   */\n      tag_167\n        /* \"#utility.yul\":6651:6675   */\n      tag_168\n        /* \"#utility.yul\":6669:6674   */\n      dup5\n        /* \"#utility.yul\":6651:6675   */\n      tag_64\n      jump\t// in\n    tag_168:\n        /* \"#utility.yul\":6642:6676   */\n      tag_84\n      jump\t// in\n    tag_167:\n        /* \"#utility.yul\":6624:6677   */\n      tag_64\n      jump\t// in\n    tag_166:\n        /* \"#utility.yul\":6611:6677   */\n      swap1\n      pop\n        /* \"#utility.yul\":6541:6683   */\n      swap2\n      swap1\n      pop\n      jump\t// out\n        /* \"#utility.yul\":6689:6764   */\n    tag_86:\n        /* \"#utility.yul\":6732:6735   */\n      0x00\n        /* \"#utility.yul\":6753:6758   */\n      dup2\n        /* \"#utility.yul\":6746:6758   */\n      swap1\n      pop\n        /* \"#utility.yul\":6689:6764   */\n      swap2\n      swap1\n      pop\n      jump\t// out\n        /* \"#utility.yul\":6770:7039   */\n    tag_87:\n        /* \"#utility.yul\":6880:6919   */\n      tag_171\n        /* \"#utility.yul\":6911:6918   */\n      dup4\n        /* \"#utility.yul\":6880:6919   */\n      tag_85\n      jump\t// in\n    tag_171:\n        /* \"#utility.yul\":6941:7032   */\n      tag_172\n        /* \"#utility.yul\":6990:7031   */\n      tag_173\n        /* \"#utility.yul\":7014:7030   */\n      dup3\n        /* \"#utility.yul\":6990:7031   */\n      tag_86\n      jump\t// in\n    tag_173:\n        /* \"#utility.yul\":6982:6988   */\n      dup5\n        /* \"#utility.yul\":6975:6979   */\n      dup5\n        /* \"#utility.yul\":6969:6980   */\n      sload\n        /* \"#utility.yul\":6941:7032   */\n      tag_83\n      jump\t// in\n    tag_172:\n        /* \"#utility.yul\":6935:6939   */\n      dup3\n        /* \"#utility.yul\":6928:7033   */\n      sstore\n        /* \"#utility.yul\":6846:7039   */\n      pop\n        /* \"#utility.yul\":6770:7039   */\n      pop\n      pop\n      pop\n      jump\t// out\n        /* \"#utility.yul\":7045:7118   */\n    tag_88:\n        /* \"#utility.yul\":7090:7093   */\n      0x00\n        /* \"#utility.yul\":7045:7118   */\n      swap1\n      jump\t// out\n        /* \"#utility.yul\":7124:7313   */\n    tag_89:\n        /* \"#utility.yul\":7201:7233   */\n      tag_176\n      tag_88\n      jump\t// in\n    tag_176:\n        /* \"#utility.yul\":7242:7307   */\n      tag_177\n        /* \"#utility.yul\":7300:7306   */\n      dup2\n        /* \"#utility.yul\":7292:7298   */\n      dup5\n        /* \"#utility.yul\":7286:7290   */\n      dup5\n        /* \"#utility.yul\":7242:7307   */\n      tag_87\n      jump\t// in\n    tag_177:\n        /* \"#utility.yul\":7177:7313   */\n      pop\n        /* \"#utility.yul\":7124:7313   */\n      pop\n      pop\n      jump\t// out\n        /* \"#utility.yul\":7319:7505   */\n    tag_90:\n        /* \"#utility.yul\":7379:7499   */\n    tag_179:\n        /* \"#utility.yul\":7396:7399   */\n      dup2\n        /* \"#utility.yul\":7389:7394   */\n      dup2\n        /* \"#utility.yul\":7386:7400   */\n      lt\n        /* \"#utility.yul\":7379:7499   */\n      iszero\n      tag_181\n      jumpi\n        /* \"#utility.yul\":7450:7489   */\n      tag_182\n        /* \"#utility.yul\":7487:7488   */\n      0x00\n        /* \"#utility.yul\":7480:7485   */\n      dup3\n        /* \"#utility.yul\":7450:7489   */\n      tag_89\n      jump\t// in\n    tag_182:\n        /* \"#utility.yul\":7423:7424   */\n      0x01\n        /* \"#utility.yul\":7416:7421   */\n      dup2\n        /* \"#utility.yul\":7412:7425   */\n      add\n        /* \"#utility.yul\":7403:7425   */\n      swap1\n      pop\n        /* \"#utility.yul\":7379:7499   */\n      jump(tag_179)\n    tag_181:\n        /* \"#utility.yul\":7319:7505   */\n      pop\n      pop\n      jump\t// out\n        /* \"#utility.yul\":7511:8054   */\n    tag_91:\n        /* \"#utility.yul\":7612:7614   */\n      0x1f\n        /* \"#utility.yul\":7607:7610   */\n      dup3\n        /* \"#utility.yul\":7604:7615   */\n      gt\n        /* \"#utility.yul\":7601:8047   */\n      iszero\n      tag_184\n      jumpi\n        /* \"#utility.yul\":7646:7684   */\n      tag_185\n        /* \"#utility.yul\":7678:7683   */\n      dup2\n        /* \"#utility.yul\":7646:7684   */\n      tag_80\n      jump\t// in\n    tag_185:\n        /* \"#utility.yul\":7730:7759   */\n      tag_186\n        /* \"#utility.yul\":7748:7758   */\n      dup5\n        /* \"#utility.yul\":7730:7759   */\n      tag_81\n      jump\t// in\n    tag_186:\n        /* \"#utility.yul\":7720:7728   */\n      dup2\n        /* \"#utility.yul\":7716:7760   */\n      add\n        /* \"#utility.yul\":7913:7915   */\n      0x20\n        /* \"#utility.yul\":7901:7911   */\n      dup6\n        /* \"#utility.yul\":7898:7916   */\n      lt\n        /* \"#utility.yul\":7895:7944   */\n      iszero\n      tag_187\n      jumpi\n        /* \"#utility.yul\":7934:7942   */\n      dup2\n        /* \"#utility.yul\":7919:7942   */\n      swap1\n      pop\n        /* \"#utility.yul\":7895:7944   */\n    tag_187:\n        /* \"#utility.yul\":7957:8037   */\n      tag_188\n        /* \"#utility.yul\":8013:8035   */\n      tag_189\n        /* \"#utility.yul\":8031:8034   */\n      dup6\n        /* \"#utility.yul\":8013:8035   */\n      tag_81\n      jump\t// in\n    tag_189:\n        /* \"#utility.yul\":8003:8011   */\n      dup4\n        /* \"#utility.yul\":7999:8036   */\n      add\n        /* \"#utility.yul\":7986:7997   */\n      dup3\n        /* \"#utility.yul\":7957:8037   */\n      tag_90\n      jump\t// in\n    tag_188:\n        /* \"#utility.yul\":7616:8047   */\n      pop\n      pop\n        /* \"#utility.yul\":7601:8047   */\n    tag_184:\n        /* \"#utility.yul\":7511:8054   */\n      pop\n      pop\n      pop\n      jump\t// out\n        /* \"#utility.yul\":8060:8177   */\n    tag_92:\n        /* \"#utility.yul\":8114:8122   */\n      0x00\n        /* \"#utility.yul\":8164:8169   */\n      dup3\n        /* \"#utility.yul\":8158:8162   */\n      dup3\n        /* \"#utility.yul\":8154:8170   */\n      shr\n        /* \"#utility.yul\":8133:8170   */\n      swap1\n      pop\n        /* \"#utility.yul\":8060:8177   */\n      swap3\n      swap2\n      pop\n      pop\n      jump\t// out\n        /* \"#utility.yul\":8183:8352   */\n    tag_93:\n        /* \"#utility.yul\":8227:8233   */\n      0x00\n        /* \"#utility.yul\":8260:8311   */\n      tag_192\n        /* \"#utility.yul\":8308:8309   */\n      0x00\n        /* \"#utility.yul\":8304:8310   */\n      not\n        /* \"#utility.yul\":8296:8301   */\n      dup5\n        /* \"#utility.yul\":8293:8294   */\n      0x08\n        /* \"#utility.yul\":8289:8302   */\n      mul\n        /* \"#utility.yul\":8260:8311   */\n      tag_92\n      jump\t// in\n    tag_192:\n        /* \"#utility.yul\":8256:8312   */\n      not\n        /* \"#utility.yul\":8341:8345   */\n      dup1\n        /* \"#utility.yul\":8335:8339   */\n      dup4\n        /* \"#utility.yul\":8331:8346   */\n      and\n        /* \"#utility.yul\":8321:8346   */\n      swap2\n      pop\n        /* \"#utility.yul\":8234:8352   */\n      pop\n        /* \"#utility.yul\":8183:8352   */\n      swap3\n      swap2\n      pop\n      pop\n      jump\t// out\n        /* \"#utility.yul\":8357:8652   */\n    tag_94:\n        /* \"#utility.yul\":8433:8437   */\n      0x00\n        /* \"#utility.yul\":8579:8608   */\n      tag_194\n        /* \"#utility.yul\":8604:8607   */\n      dup4\n        /* \"#utility.yul\":8598:8602   */\n      dup4\n        /* \"#utility.yul\":8579:8608   */\n      tag_93\n      jump\t// in\n    tag_194:\n        /* \"#utility.yul\":8571:8608   */\n      swap2\n      pop\n        /* \"#utility.yul\":8641:8644   */\n      dup3\n        /* \"#utility.yul\":8638:8639   */\n      0x02\n        /* \"#utility.yul\":8634:8645   */\n      mul\n        /* \"#utility.yul\":8628:8632   */\n      dup3\n        /* \"#utility.yul\":8625:8646   */\n      or\n        /* \"#utility.yul\":8617:8646   */\n      swap1\n      pop\n        /* \"#utility.yul\":8357:8652   */\n      swap3\n      swap2\n      pop\n      pop\n      jump\t// out\n        /* \"#utility.yul\":8657:10052   */\n    tag_47:\n        /* \"#utility.yul\":8774:8811   */\n      tag_196\n        /* \"#utility.yul\":8807:8810   */\n      dup3\n        /* \"#utility.yul\":8774:8811   */\n      tag_67\n      jump\t// in\n    tag_196:\n        /* \"#utility.yul\":8876:8894   */\n      0xffffffffffffffff\n        /* \"#utility.yul\":8868:8874   */\n      dup2\n        /* \"#utility.yul\":8865:8895   */\n      gt\n        /* \"#utility.yul\":8862:8918   */\n      iszero\n      tag_197\n      jumpi\n        /* \"#utility.yul\":8898:8916   */\n      tag_198\n      tag_79\n      jump\t// in\n    tag_198:\n        /* \"#utility.yul\":8862:8918   */\n    tag_197:\n        /* \"#utility.yul\":8942:8980   */\n      tag_199\n        /* \"#utility.yul\":8974:8978   */\n      dup3\n        /* \"#utility.yul\":8968:8979   */\n      sload\n        /* \"#utility.yul\":8942:8980   */\n      tag_39\n      jump\t// in\n    tag_199:\n        /* \"#utility.yul\":9027:9094   */\n      tag_200\n        /* \"#utility.yul\":9087:9093   */\n      dup3\n        /* \"#utility.yul\":9079:9085   */\n      dup3\n        /* \"#utility.yul\":9073:9077   */\n      dup6\n        /* \"#utility.yul\":9027:9094   */\n      tag_91\n      jump\t// in\n    tag_200:\n        /* \"#utility.yul\":9121:9122   */\n      0x00\n        /* \"#utility.yul\":9145:9149   */\n      0x20\n        /* \"#utility.yul\":9132:9149   */\n      swap1\n      pop\n        /* \"#utility.yul\":9177:9179   */\n      0x1f\n        /* \"#utility.yul\":9169:9175   */\n      dup4\n        /* \"#utility.yul\":9166:9180   */\n      gt\n        /* \"#utility.yul\":9194:9195   */\n      0x01\n        /* \"#utility.yul\":9189:9807   */\n      dup2\n      eq\n      tag_202\n      jumpi\n        /* \"#utility.yul\":9851:9852   */\n      0x00\n        /* \"#utility.yul\":9868:9874   */\n      dup5\n        /* \"#utility.yul\":9865:9942   */\n      iszero\n      tag_203\n      jumpi\n        /* \"#utility.yul\":9917:9926   */\n      dup3\n        /* \"#utility.yul\":9912:9915   */\n      dup8\n        /* \"#utility.yul\":9908:9927   */\n      add\n        /* \"#utility.yul\":9902:9928   */\n      mload\n        /* \"#utility.yul\":9893:9928   */\n      swap1\n      pop\n        /* \"#utility.yul\":9865:9942   */\n    tag_203:\n        /* \"#utility.yul\":9968:10035   */\n      tag_204\n        /* \"#utility.yul\":10028:10034   */\n      dup6\n        /* \"#utility.yul\":10021:10026   */\n      dup3\n        /* \"#utility.yul\":9968:10035   */\n      tag_94\n      jump\t// in\n    tag_204:\n        /* \"#utility.yul\":9962:9966   */\n      dup7\n        /* \"#utility.yul\":9955:10036   */\n      sstore\n        /* \"#utility.yul\":9824:10046   */\n      pop\n        /* \"#utility.yul\":9159:10046   */\n      jump(tag_201)\n        /* \"#utility.yul\":9189:9807   */\n    tag_202:\n        /* \"#utility.yul\":9241:9245   */\n      0x1f\n        /* \"#utility.yul\":9237:9246   */\n      not\n        /* \"#utility.yul\":9229:9235   */\n      dup5\n        /* \"#utility.yul\":9225:9247   */\n      and\n        /* \"#utility.yul\":9275:9312   */\n      tag_205\n        /* \"#utility.yul\":9307:9311   */\n      dup7\n        /* \"#utility.yul\":9275:9312   */\n      tag_80\n      jump\t// in\n    tag_205:\n        /* \"#utility.yul\":9334:9335   */\n      0x00\n        /* \"#utility.yul\":9348:9556   */\n    tag_206:\n        /* \"#utility.yul\":9362:9369   */\n      dup3\n        /* \"#utility.yul\":9359:9360   */\n      dup2\n        /* \"#utility.yul\":9356:9370   */\n      lt\n        /* \"#utility.yul\":9348:9556   */\n      iszero\n      tag_208\n      jumpi\n        /* \"#utility.yul\":9441:9450   */\n      dup5\n        /* \"#utility.yul\":9436:9439   */\n      dup10\n        /* \"#utility.yul\":9432:9451   */\n      add\n        /* \"#utility.yul\":9426:9452   */\n      mload\n        /* \"#utility.yul\":9418:9424   */\n      dup3\n        /* \"#utility.yul\":9411:9453   */\n      sstore\n        /* \"#utility.yul\":9492:9493   */\n      0x01\n        /* \"#utility.yul\":9484:9490   */\n      dup3\n        /* \"#utility.yul\":9480:9494   */\n      add\n        /* \"#utility.yul\":9470:9494   */\n      swap2\n      pop\n        /* \"#utility.yul\":9539:9541   */\n      0x20\n        /* \"#utility.yul\":9528:9537   */\n      dup6\n        /* \"#utility.yul\":9524:9542   */\n      add\n        /* \"#utility.yul\":9511:9542   */\n      swap5\n      pop\n        /* \"#utility.yul\":9385:9389   */\n      0x20\n        /* \"#utility.yul\":9382:9383   */\n      dup2\n        /* \"#utility.yul\":9378:9390   */\n      add\n        /* \"#utility.yul\":9373:9390   */\n      swap1\n      pop\n        /* \"#utility.yul\":9348:9556   */\n      jump(tag_206)\n    tag_208:\n        /* \"#utility.yul\":9584:9590   */\n      dup7\n        /* \"#utility.yul\":9575:9582   */\n      dup4\n        /* \"#utility.yul\":9572:9591   */\n      lt\n        /* \"#utility.yul\":9569:9748   */\n      iszero\n      tag_209\n      jumpi\n        /* \"#utility.yul\":9642:9651   */\n      dup5\n        /* \"#utility.yul\":9637:9640   */\n      dup10\n        /* \"#utility.yul\":9633:9652   */\n      add\n        /* \"#utility.yul\":9627:9653   */\n      mload\n        /* \"#utility.yul\":9685:9733   */\n      tag_210\n        /* \"#utility.yul\":9727:9731   */\n      0x1f\n        /* \"#utility.yul\":9719:9725   */\n      dup10\n        /* \"#utility.yul\":9715:9732   */\n      and\n        /* \"#utility.yul\":9704:9713   */\n      dup3\n        /* \"#utility.yul\":9685:9733   */\n      tag_93\n      jump\t// in\n    tag_210:\n        /* \"#utility.yul\":9677:9683   */\n      dup4\n        /* \"#utility.yul\":9670:9734   */\n      sstore\n        /* \"#utility.yul\":9592:9748   */\n      pop\n        /* \"#utility.yul\":9569:9748   */\n    tag_209:\n        /* \"#utility.yul\":9794:9795   */\n      0x01\n        /* \"#utility.yul\":9790:9791   */\n      0x02\n        /* \"#utility.yul\":9782:9788   */\n      dup9\n        /* \"#utility.yul\":9778:9792   */\n      mul\n        /* \"#utility.yul\":9774:9796   */\n      add\n        /* \"#utility.yul\":9768:9772   */\n      dup9\n        /* \"#utility.yul\":9761:9797   */\n      sstore\n        /* \"#utility.yul\":9196:9807   */\n      pop\n      pop\n      pop\n        /* \"#utility.yul\":9159:10046   */\n    tag_201:\n      pop\n        /* \"#utility.yul\":8749:10052   */\n      pop\n      pop\n      pop\n        /* \"#utility.yul\":8657:10052   */\n      pop\n      pop\n      jump\t// out\n        /* \"#utility.yul\":10058:10155   */\n    tag_95:\n        /* \"#utility.yul\":10117:10123   */\n      0x00\n        /* \"#utility.yul\":10145:10148   */\n      dup3\n        /* \"#utility.yul\":10135:10148   */\n      swap1\n      pop\n        /* \"#utility.yul\":10058:10155   */\n      swap3\n      swap2\n      pop\n      pop\n      jump\t// out\n        /* \"#utility.yul\":10161:11564   */\n    tag_60:\n        /* \"#utility.yul\":10285:10329   */\n      tag_213\n        /* \"#utility.yul\":10325:10328   */\n      dup4\n        /* \"#utility.yul\":10320:10323   */\n      dup4\n        /* \"#utility.yul\":10285:10329   */\n      tag_95\n      jump\t// in\n    tag_213:\n        /* \"#utility.yul\":10394:10412   */\n      0xffffffffffffffff\n        /* \"#utility.yul\":10386:10392   */\n      dup2\n        /* \"#utility.yul\":10383:10413   */\n      gt\n        /* \"#utility.yul\":10380:10436   */\n      iszero\n      tag_214\n      jumpi\n        /* \"#utility.yul\":10416:10434   */\n      tag_215\n      tag_79\n      jump\t// in\n    tag_215:\n        /* \"#utility.yul\":10380:10436   */\n    tag_214:\n        /* \"#utility.yul\":10460:10498   */\n      tag_216\n        /* \"#utility.yul\":10492:10496   */\n      dup3\n        /* \"#utility.yul\":10486:10497   */\n      sload\n        /* \"#utility.yul\":10460:10498   */\n      tag_39\n      jump\t// in\n    tag_216:\n        /* \"#utility.yul\":10545:10612   */\n      tag_217\n        /* \"#utility.yul\":10605:10611   */\n      dup3\n        /* \"#utility.yul\":10597:10603   */\n      dup3\n        /* \"#utility.yul\":10591:10595   */\n      dup6\n        /* \"#utility.yul\":10545:10612   */\n      tag_91\n      jump\t// in\n    tag_217:\n        /* \"#utility.yul\":10639:10640   */\n      0x00\n        /* \"#utility.yul\":10668:10670   */\n      0x1f\n        /* \"#utility.yul\":10660:10666   */\n      dup4\n        /* \"#utility.yul\":10657:10671   */\n      gt\n        /* \"#utility.yul\":10685:10686   */\n      0x01\n        /* \"#utility.yul\":10680:11312   */\n      dup2\n      eq\n      tag_219\n      jumpi\n        /* \"#utility.yul\":11356:11357   */\n      0x00\n        /* \"#utility.yul\":11373:11379   */\n      dup5\n        /* \"#utility.yul\":11370:11454   */\n      iszero\n      tag_220\n      jumpi\n        /* \"#utility.yul\":11429:11438   */\n      dup3\n        /* \"#utility.yul\":11424:11427   */\n      dup8\n        /* \"#utility.yul\":11420:11439   */\n      add\n        /* \"#utility.yul\":11407:11440   */\n      calldataload\n        /* \"#utility.yul\":11398:11440   */\n      swap1\n      pop\n        /* \"#utility.yul\":11370:11454   */\n    tag_220:\n        /* \"#utility.yul\":11480:11547   */\n      tag_221\n        /* \"#utility.yul\":11540:11546   */\n      dup6\n        /* \"#utility.yul\":11533:11538   */\n      dup3\n        /* \"#utility.yul\":11480:11547   */\n      tag_94\n      jump\t// in\n    tag_221:\n        /* \"#utility.yul\":11474:11478   */\n      dup7\n        /* \"#utility.yul\":11467:11548   */\n      sstore\n        /* \"#utility.yul\":11329:11558   */\n      pop\n        /* \"#utility.yul\":10650:11558   */\n      jump(tag_218)\n        /* \"#utility.yul\":10680:11312   */\n    tag_219:\n        /* \"#utility.yul\":10732:10736   */\n      0x1f\n        /* \"#utility.yul\":10728:10737   */\n      not\n        /* \"#utility.yul\":10720:10726   */\n      dup5\n        /* \"#utility.yul\":10716:10738   */\n      and\n        /* \"#utility.yul\":10766:10803   */\n      tag_222\n        /* \"#utility.yul\":10798:10802   */\n      dup7\n        /* \"#utility.yul\":10766:10803   */\n      tag_80\n      jump\t// in\n    tag_222:\n        /* \"#utility.yul\":10825:10826   */\n      0x00\n        /* \"#utility.yul\":10839:11054   */\n    tag_223:\n        /* \"#utility.yul\":10853:10860   */\n      dup3\n        /* \"#utility.yul\":10850:10851   */\n      dup2\n        /* \"#utility.yul\":10847:10861   */\n      lt\n        /* \"#utility.yul\":10839:11054   */\n      iszero\n      tag_225\n      jumpi\n        /* \"#utility.yul\":10939:10948   */\n      dup5\n        /* \"#utility.yul\":10934:10937   */\n      dup10\n        /* \"#utility.yul\":10930:10949   */\n      add\n        /* \"#utility.yul\":10917:10950   */\n      calldataload\n        /* \"#utility.yul\":10909:10915   */\n      dup3\n        /* \"#utility.yul\":10902:10951   */\n      sstore\n        /* \"#utility.yul\":10990:10991   */\n      0x01\n        /* \"#utility.yul\":10982:10988   */\n      dup3\n        /* \"#utility.yul\":10978:10992   */\n      add\n        /* \"#utility.yul\":10968:10992   */\n      swap2\n      pop\n        /* \"#utility.yul\":11037:11039   */\n      0x20\n        /* \"#utility.yul\":11026:11035   */\n      dup6\n        /* \"#utility.yul\":11022:11040   */\n      add\n        /* \"#utility.yul\":11009:11040   */\n      swap5\n      pop\n        /* \"#utility.yul\":10876:10880   */\n      0x20\n        /* \"#utility.yul\":10873:10874   */\n      dup2\n        /* \"#utility.yul\":10869:10881   */\n      add\n        /* \"#utility.yul\":10864:10881   */\n      swap1\n      pop\n        /* \"#utility.yul\":10839:11054   */\n      jump(tag_223)\n    tag_225:\n        /* \"#utility.yul\":11082:11088   */\n      dup7\n        /* \"#utility.yul\":11073:11080   */\n      dup4\n        /* \"#utility.yul\":11070:11089   */\n      lt\n        /* \"#utility.yul\":11067:11253   */\n      iszero\n      tag_226\n      jumpi\n        /* \"#utility.yul\":11147:11156   */\n      dup5\n        /* \"#utility.yul\":11142:11145   */\n      dup10\n        /* \"#utility.yul\":11138:11157   */\n      add\n        /* \"#utility.yul\":11125:11158   */\n      calldataload\n        /* \"#utility.yul\":11190:11238   */\n      tag_227\n        /* \"#utility.yul\":11232:11236   */\n      0x1f\n        /* \"#utility.yul\":11224:11230   */\n      dup10\n        /* \"#utility.yul\":11220:11237   */\n      and\n        /* \"#utility.yul\":11209:11218   */\n      dup3\n        /* \"#utility.yul\":11190:11238   */\n      tag_93\n      jump\t// in\n    tag_227:\n        /* \"#utility.yul\":11182:11188   */\n      dup4\n        /* \"#utility.yul\":11175:11239   */\n      sstore\n        /* \"#utility.yul\":11090:11253   */\n      pop\n        /* \"#utility.yul\":11067:11253   */\n    tag_226:\n        /* \"#utility.yul\":11299:11300   */\n      0x01\n        /* \"#utility.yul\":11295:11296   */\n      0x02\n        /* \"#utility.yul\":11287:11293   */\n      dup9\n        /* \"#utility.yul\":11283:11297   */\n      mul\n        /* \"#utility.yul\":11279:11301   */\n      add\n        /* \"#utility.yul\":11273:11277   */\n      dup9\n        /* \"#utility.yul\":11266:11302   */\n      sstore\n        /* \"#utility.yul\":10687:11312   */\n      pop\n      pop\n      pop\n        /* \"#utility.yul\":10650:11558   */\n    tag_218:\n      pop\n        /* \"#utility.yul\":10260:11564   */\n      pop\n      pop\n      pop\n        /* \"#utility.yul\":10161:11564   */\n      pop\n      pop\n      pop\n      jump\t// out\n\n    auxdata: 0xa264697066735822122023744691923fd391b6228b96e56e0c52a88cea307aca6a597184669618444dd164736f6c63430008120033\n}\n",
				"bytecode": {
					"linkReferences": {},
					"object": "608060405234801561001057600080fd5b50610ab0806100206000396000f3fe608060405234801561001057600080fd5b50600436106100575760003560e01c8063455f50241461005c5780639507d39a14610078578063b6a46b3b146100a9578063bc8bc2b4146100c5578063cd111614146100f6575b600080fd5b61007660048036038101906100719190610449565b610112565b005b610092600480360381019061008d9190610449565b610169565b6040516100a0929190610521565b60405180910390f35b6100c360048036038101906100be91906105b6565b61023e565b005b6100df60048036038101906100da9190610449565b610301565b6040516100ed929190610521565b60405180910390f35b610110600480360381019061010b9190610603565b6103ca565b005b600080828154811061012757610126610663565b5b906000526020600020906002020190508060010160009054906101000a900460ff16158160010160006101000a81548160ff0219169083151502179055505050565b60606000806000848154811061018257610181610663565b5b90600052602060002090600202019050806000018160010160009054906101000a900460ff168180546101b4906106c1565b80601f01602080910402602001604051908101604052809291908181526020018280546101e0906106c1565b801561022d5780601f106102025761010080835404028352916020019161022d565b820191906000526020600020905b81548152906001019060200180831161021057829003601f168201915b505050505091509250925050915091565b6000604051806040016040528084848080601f016020809104026020016040519081016040528093929190818152602001838380828437600081840152601f19601f82011690508083019250505050505050815260200160001515815250908060018154018082558091505060019003906000526020600020906002020160009091909190915060008201518160000190816102da91906108cd565b5060208201518160010160006101000a81548160ff02191690831515021790555050505050565b6000818154811061031157600080fd5b9060005260206000209060020201600091509050806000018054610334906106c1565b80601f0160208091040260200160405190810160405280929190818152602001828054610360906106c1565b80156103ad5780601f10610382576101008083540402835291602001916103ad565b820191906000526020600020905b81548152906001019060200180831161039057829003601f168201915b5050505050908060010160009054906101000a900460ff16905082565b60008084815481106103df576103de610663565b5b9060005260206000209060020201905082828260000191826104029291906109aa565b5050505050565b600080fd5b600080fd5b6000819050919050565b61042681610413565b811461043157600080fd5b50565b6000813590506104438161041d565b92915050565b60006020828403121561045f5761045e610409565b5b600061046d84828501610434565b91505092915050565b600081519050919050565b600082825260208201905092915050565b60005b838110156104b0578082015181840152602081019050610495565b60008484015250505050565b6000601f19601f8301169050919050565b60006104d882610476565b6104e28185610481565b93506104f2818560208601610492565b6104fb816104bc565b840191505092915050565b60008115159050919050565b61051b81610506565b82525050565b6000604082019050818103600083015261053b81856104cd565b905061054a6020830184610512565b9392505050565b600080fd5b600080fd5b600080fd5b60008083601f84011261057657610575610551565b5b8235905067ffffffffffffffff81111561059357610592610556565b5b6020830191508360018202830111156105af576105ae61055b565b5b9250929050565b600080602083850312156105cd576105cc610409565b5b600083013567ffffffffffffffff8111156105eb576105ea61040e565b5b6105f785828601610560565b92509250509250929050565b60008060006040848603121561061c5761061b610409565b5b600061062a86828701610434565b935050602084013567ffffffffffffffff81111561064b5761064a61040e565b5b61065786828701610560565b92509250509250925092565b7f4e487b7100000000000000000000000000000000000000000000000000000000600052603260045260246000fd5b7f4e487b7100000000000000000000000000000000000000000000000000000000600052602260045260246000fd5b600060028204905060018216806106d957607f821691505b6020821081036106ec576106eb610692565b5b50919050565b7f4e487b7100000000000000000000000000000000000000000000000000000000600052604160045260246000fd5b60008190508160005260206000209050919050565b60006020601f8301049050919050565b600082821b905092915050565b6000600883026107837fffffffffffffffffffffffffffffffffffffffffffffffffffffffffffffffff82610746565b61078d8683610746565b95508019841693508086168417925050509392505050565b6000819050919050565b60006107ca6107c56107c084610413565b6107a5565b610413565b9050919050565b6000819050919050565b6107e4836107af565b6107f86107f0826107d1565b848454610753565b825550505050565b600090565b61080d610800565b6108188184846107db565b505050565b5b8181101561083c57610831600082610805565b60018101905061081e565b5050565b601f8211156108815761085281610721565b61085b84610736565b8101602085101561086a578190505b61087e61087685610736565b83018261081d565b50505b505050565b600082821c905092915050565b60006108a460001984600802610886565b1980831691505092915050565b60006108bd8383610893565b9150826002028217905092915050565b6108d682610476565b67ffffffffffffffff8111156108ef576108ee6106f2565b5b6108f982546106c1565b610904828285610840565b600060209050601f8311600181146109375760008415610925578287015190505b61092f85826108b1565b865550610997565b601f19841661094586610721565b60005b8281101561096d57848901518255600182019150602085019450602081019050610948565b8683101561098a5784890151610986601f891682610893565b8355505b6001600288020188555050505b505050505050565b600082905092915050565b6109b4838361099f565b67ffffffffffffffff8111156109cd576109cc6106f2565b5b6109d782546106c1565b6109e2828285610840565b6000601f831160018114610a1157600084156109ff578287013590505b610a0985826108b1565b865550610a71565b601f198416610a1f86610721565b60005b82811015610a4757848901358255600182019150602085019450602081019050610a22565b86831015610a645784890135610a60601f891682610893565b8355505b6001600288020188555050505b5050505050505056fea264697066735822122023744691923fd391b6228b96e56e0c52a88cea307aca6a597184669618444dd164736f6c63430008120033",
					"opcodes": "PUSH1 0x80 PUSH1 0x40 MSTORE CALLVALUE DUP1 ISZERO PUSH2 0x10 JUMPI PUSH1 0x0 DUP1 REVERT JUMPDEST POP PUSH2 0xAB0 DUP1 PUSH2 0x20 PUSH1 0x0 CODECOPY PUSH1 0x0 RETURN INVALID PUSH1 0x80 PUSH1 0x40 MSTORE CALLVALUE DUP1 ISZERO PUSH2 0x10 JUMPI PUSH1 0x0 DUP1 REVERT JUMPDEST POP PUSH1 0x4 CALLDATASIZE LT PUSH2 0x57 JUMPI PUSH1 0x0 CALLDATALOAD PUSH1 0xE0 SHR DUP1 PUSH4 0x455F5024 EQ PUSH2 0x5C JUMPI DUP1 PUSH4 0x9507D39A EQ PUSH2 0x78 JUMPI DUP1 PUSH4 0xB6A46B3B EQ PUSH2 0xA9 JUMPI DUP1 PUSH4 0xBC8BC2B4 EQ PUSH2 0xC5 JUMPI DUP1 PUSH4 0xCD111614 EQ PUSH2 0xF6 JUMPI JUMPDEST PUSH1 0x0 DUP1 REVERT JUMPDEST PUSH2 0x76 PUSH1 0x4 DUP1 CALLDATASIZE SUB DUP2 ADD SWAP1 PUSH2 0x71 SWAP2 SWAP1 PUSH2 0x449 JUMP JUMPDEST PUSH2 0x112 JUMP JUMPDEST STOP JUMPDEST PUSH2 0x92 PUSH1 0x4 DUP1 CALLDATASIZE SUB DUP2 ADD SWAP1 PUSH2 0x8D SWAP2 SWAP1 PUSH2 0x449 JUMP JUMPDEST PUSH2 0x169 JUMP JUMPDEST PUSH1 0x40 MLOAD PUSH2 0xA0 SWAP3 SWAP2 SWAP1 PUSH2 0x521 JUMP JUMPDEST PUSH1 0x40 MLOAD DUP1 SWAP2 SUB SWAP1 RETURN JUMPDEST PUSH2 0xC3 PUSH1 0x4 DUP1 CALLDATASIZE SUB DUP2 ADD SWAP1 PUSH2 0xBE SWAP2 SWAP1 PUSH2 0x5B6 JUMP JUMPDEST PUSH2 0x23E JUMP JUMPDEST STOP JUMPDEST PUSH2 0xDF PUSH1 0x4 DUP1 CALLDATASIZE SUB DUP2 ADD SWAP1 PUSH2 0xDA SWAP2 SWAP1 PUSH2 0x449 JUMP JUMPDEST PUSH2 0x301 JUMP JUMPDEST PUSH1 0x40 MLOAD PUSH2 0xED SWAP3 SWAP2 SWAP1 PUSH2 0x521 JUMP JUMPDEST PUSH1 0x40 MLOAD DUP1 SWAP2 SUB SWAP1 RETURN JUMPDEST PUSH2 0x110 PUSH1 0x4 DUP1 CALLDATASIZE SUB DUP2 ADD SWAP1 PUSH2 0x10B SWAP2 SWAP1 PUSH2 0x603 JUMP JUMPDEST PUSH2 0x3CA JUMP JUMPDEST STOP JUMPDEST PUSH1 0x0 DUP1 DUP3 DUP2 SLOAD DUP2 LT PUSH2 0x127 JUMPI PUSH2 0x126 PUSH2 0x663 JUMP JUMPDEST JUMPDEST SWAP1 PUSH1 0x0 MSTORE PUSH1 0x20 PUSH1 0x0 KECCAK256 SWAP1 PUSH1 0x2 MUL ADD SWAP1 POP DUP1 PUSH1 0x1 ADD PUSH1 0x0 SWAP1 SLOAD SWAP1 PUSH2 0x100 EXP SWAP1 DIV PUSH1 0xFF AND ISZERO DUP2 PUSH1 0x1 ADD PUSH1 0x0 PUSH2 0x100 EXP DUP2 SLOAD DUP2 PUSH1 0xFF MUL NOT AND SWAP1 DUP4 ISZERO ISZERO MUL OR SWAP1 SSTORE POP POP POP JUMP JUMPDEST PUSH1 0x60 PUSH1 0x0 DUP1 PUSH1 0x0 DUP5 DUP2 SLOAD DUP2 LT PUSH2 0x182 JUMPI PUSH2 0x181 PUSH2 0x663 JUMP JUMPDEST JUMPDEST SWAP1 PUSH1 0x0 MSTORE PUSH1 0x20 PUSH1 0x0 KECCAK256 SWAP1 PUSH1 0x2 MUL ADD SWAP1 POP DUP1 PUSH1 0x0 ADD DUP2 PUSH1 0x1 ADD PUSH1 0x0 SWAP1 SLOAD SWAP1 PUSH2 0x100 EXP SWAP1 DIV PUSH1 0xFF AND DUP2 DUP1 SLOAD PUSH2 0x1B4 SWAP1 PUSH2 0x6C1 JUMP JUMPDEST DUP1 PUSH1 0x1F ADD PUSH1 0x20 DUP1 SWAP2 DIV MUL PUSH1 0x20 ADD PUSH1 0x40 MLOAD SWAP1 DUP2 ADD PUSH1 0x40 MSTORE DUP1 SWAP3 SWAP2 SWAP1 DUP2 DUP2 MSTORE PUSH1 0x20 ADD DUP3 DUP1 SLOAD PUSH2 0x1E0 SWAP1 PUSH2 0x6C1 JUMP JUMPDEST DUP1 ISZERO PUSH2 0x22D JUMPI DUP1 PUSH1 0x1F LT PUSH2 0x202 JUMPI PUSH2 0x100 DUP1 DUP4 SLOAD DIV MUL DUP4 MSTORE SWAP2 PUSH1 0x20 ADD SWAP2 PUSH2 0x22D JUMP JUMPDEST DUP3 ADD SWAP2 SWAP1 PUSH1 0x0 MSTORE PUSH1 0x20 PUSH1 0x0 KECCAK256 SWAP1 JUMPDEST DUP2 SLOAD DUP2 MSTORE SWAP1 PUSH1 0x1 ADD SWAP1 PUSH1 0x20 ADD DUP1 DUP4 GT PUSH2 0x210 JUMPI DUP3 SWAP1 SUB PUSH1 0x1F AND DUP3 ADD SWAP2 JUMPDEST POP POP POP POP POP SWAP2 POP SWAP3 POP SWAP3 POP POP SWAP2 POP SWAP2 JUMP JUMPDEST PUSH1 0x0 PUSH1 0x40 MLOAD DUP1 PUSH1 0x40 ADD PUSH1 0x40 MSTORE DUP1 DUP5 DUP5 DUP1 DUP1 PUSH1 0x1F ADD PUSH1 0x20 DUP1 SWAP2 DIV MUL PUSH1 0x20 ADD PUSH1 0x40 MLOAD SWAP1 DUP2 ADD PUSH1 0x40 MSTORE DUP1 SWAP4 SWAP3 SWAP2 SWAP1 DUP2 DUP2 MSTORE PUSH1 0x20 ADD DUP4 DUP4 DUP1 DUP3 DUP5 CALLDATACOPY PUSH1 0x0 DUP2 DUP5 ADD MSTORE PUSH1 0x1F NOT PUSH1 0x1F DUP3 ADD AND SWAP1 POP DUP1 DUP4 ADD SWAP3 POP POP POP POP POP POP POP DUP2 MSTORE PUSH1 0x20 ADD PUSH1 0x0 ISZERO ISZERO DUP2 MSTORE POP SWAP1 DUP1 PUSH1 0x1 DUP2 SLOAD ADD DUP1 DUP3 SSTORE DUP1 SWAP2 POP POP PUSH1 0x1 SWAP1 SUB SWAP1 PUSH1 0x0 MSTORE PUSH1 0x20 PUSH1 0x0 KECCAK256 SWAP1 PUSH1 0x2 MUL ADD PUSH1 0x0 SWAP1 SWAP2 SWAP1 SWAP2 SWAP1 SWAP2 POP PUSH1 0x0 DUP3 ADD MLOAD DUP2 PUSH1 0x0 ADD SWAP1 DUP2 PUSH2 0x2DA SWAP2 SWAP1 PUSH2 0x8CD JUMP JUMPDEST POP PUSH1 0x20 DUP3 ADD MLOAD DUP2 PUSH1 0x1 ADD PUSH1 0x0 PUSH2 0x100 EXP DUP2 SLOAD DUP2 PUSH1 0xFF MUL NOT AND SWAP1 DUP4 ISZERO ISZERO MUL OR SWAP1 SSTORE POP POP POP POP POP JUMP JUMPDEST PUSH1 0x0 DUP2 DUP2 SLOAD DUP2 LT PUSH2 0x311 JUMPI PUSH1 0x0 DUP1 REVERT JUMPDEST SWAP1 PUSH1 0x0 MSTORE PUSH1 0x20 PUSH1 0x0 KECCAK256 SWAP1 PUSH1 0x2 MUL ADD PUSH1 0x0 SWAP2 POP SWAP1 POP DUP1 PUSH1 0x0 ADD DUP1 SLOAD PUSH2 0x334 SWAP1 PUSH2 0x6C1 JUMP JUMPDEST DUP1 PUSH1 0x1F ADD PUSH1 0x20 DUP1 SWAP2 DIV MUL PUSH1 0x20 ADD PUSH1 0x40 MLOAD SWAP1 DUP2 ADD PUSH1 0x40 MSTORE DUP1 SWAP3 SWAP2 SWAP1 DUP2 DUP2 MSTORE PUSH1 0x20 ADD DUP3 DUP1 SLOAD PUSH2 0x360 SWAP1 PUSH2 0x6C1 JUMP JUMPDEST DUP1 ISZERO PUSH2 0x3AD JUMPI DUP1 PUSH1 0x1F LT PUSH2 0x382 JUMPI PUSH2 0x100 DUP1 DUP4 SLOAD DIV MUL DUP4 MSTORE SWAP2 PUSH1 0x20 ADD SWAP2 PUSH2 0x3AD JUMP JUMPDEST DUP3 ADD SWAP2 SWAP1 PUSH1 0x0 MSTORE PUSH1 0x20 PUSH1 0x0 KECCAK256 SWAP1 JUMPDEST DUP2 SLOAD DUP2 MSTORE SWAP1 PUSH1 0x1 ADD SWAP1 PUSH1 0x20 ADD DUP1 DUP4 GT PUSH2 0x390 JUMPI DUP3 SWAP1 SUB PUSH1 0x1F AND DUP3 ADD SWAP2 JUMPDEST POP POP POP POP POP SWAP1 DUP1 PUSH1 0x1 ADD PUSH1 0x0 SWAP1 SLOAD SWAP1 PUSH2 0x100 EXP SWAP1 DIV PUSH1 0xFF AND SWAP1 POP DUP3 JUMP JUMPDEST PUSH1 0x0 DUP1 DUP5 DUP2 SLOAD DUP2 LT PUSH2 0x3DF JUMPI PUSH2 0x3DE PUSH2 0x663 JUMP JUMPDEST JUMPDEST SWAP1 PUSH1 0x0 MSTORE PUSH1 0x20 PUSH1 0x0 KECCAK256 SWAP1 PUSH1 0x2 MUL ADD SWAP1 POP DUP3 DUP3 DUP3 PUSH1 0x0 ADD SWAP2 DUP3 PUSH2 0x402 SWAP3 SWAP2 SWAP1 PUSH2 0x9AA JUMP JUMPDEST POP POP POP POP POP JUMP JUMPDEST PUSH1 0x0 DUP1 REVERT JUMPDEST PUSH1 0x0 DUP1 REVERT JUMPDEST PUSH1 0x0 DUP2 SWAP1 POP SWAP2 SWAP1 POP JUMP JUMPDEST PUSH2 0x426 DUP2 PUSH2 0x413 JUMP JUMPDEST DUP2 EQ PUSH2 0x431 JUMPI PUSH1 0x0 DUP1 REVERT JUMPDEST POP JUMP JUMPDEST PUSH1 0x0 DUP2 CALLDATALOAD SWAP1 POP PUSH2 0x443 DUP2 PUSH2 0x41D JUMP JUMPDEST SWAP3 SWAP2 POP POP JUMP JUMPDEST PUSH1 0x0 PUSH1 0x20 DUP3 DUP5 SUB SLT ISZERO PUSH2 0x45F JUMPI PUSH2 0x45E PUSH2 0x409 JUMP JUMPDEST JUMPDEST PUSH1 0x0 PUSH2 0x46D DUP5 DUP3 DUP6 ADD PUSH2 0x434 JUMP JUMPDEST SWAP2 POP POP SWAP3 SWAP2 POP POP JUMP JUMPDEST PUSH1 0x0 DUP2 MLOAD SWAP1 POP SWAP2 SWAP1 POP JUMP JUMPDEST PUSH1 0x0 DUP3 DUP3 MSTORE PUSH1 0x20 DUP3 ADD SWAP1 POP SWAP3 SWAP2 POP POP JUMP JUMPDEST PUSH1 0x0 JUMPDEST DUP4 DUP2 LT ISZERO PUSH2 0x4B0 JUMPI DUP1 DUP3 ADD MLOAD DUP2 DUP5 ADD MSTORE PUSH1 0x20 DUP2 ADD SWAP1 POP PUSH2 0x495 JUMP JUMPDEST PUSH1 0x0 DUP5 DUP5 ADD MSTORE POP POP POP POP JUMP JUMPDEST PUSH1 0x0 PUSH1 0x1F NOT PUSH1 0x1F DUP4 ADD AND SWAP1 POP SWAP2 SWAP1 POP JUMP JUMPDEST PUSH1 0x0 PUSH2 0x4D8 DUP3 PUSH2 0x476 JUMP JUMPDEST PUSH2 0x4E2 DUP2 DUP6 PUSH2 0x481 JUMP JUMPDEST SWAP4 POP PUSH2 0x4F2 DUP2 DUP6 PUSH1 0x20 DUP7 ADD PUSH2 0x492 JUMP JUMPDEST PUSH2 0x4FB DUP2 PUSH2 0x4BC JUMP JUMPDEST DUP5 ADD SWAP2 POP POP SWAP3 SWAP2 POP POP JUMP JUMPDEST PUSH1 0x0 DUP2 ISZERO ISZERO SWAP1 POP SWAP2 SWAP1 POP JUMP JUMPDEST PUSH2 0x51B DUP2 PUSH2 0x506 JUMP JUMPDEST DUP3 MSTORE POP POP JUMP JUMPDEST PUSH1 0x0 PUSH1 0x40 DUP3 ADD SWAP1 POP DUP2 DUP2 SUB PUSH1 0x0 DUP4 ADD MSTORE PUSH2 0x53B DUP2 DUP6 PUSH2 0x4CD JUMP JUMPDEST SWAP1 POP PUSH2 0x54A PUSH1 0x20 DUP4 ADD DUP5 PUSH2 0x512 JUMP JUMPDEST SWAP4 SWAP3 POP POP POP JUMP JUMPDEST PUSH1 0x0 DUP1 REVERT JUMPDEST PUSH1 0x0 DUP1 REVERT JUMPDEST PUSH1 0x0 DUP1 REVERT JUMPDEST PUSH1 0x0 DUP1 DUP4 PUSH1 0x1F DUP5 ADD SLT PUSH2 0x576 JUMPI PUSH2 0x575 PUSH2 0x551 JUMP JUMPDEST JUMPDEST DUP3 CALLDATALOAD SWAP1 POP PUSH8 0xFFFFFFFFFFFFFFFF DUP2 GT ISZERO PUSH2 0x593 JUMPI PUSH2 0x592 PUSH2 0x556 JUMP JUMPDEST JUMPDEST PUSH1 0x20 DUP4 ADD SWAP2 POP DUP4 PUSH1 0x1 DUP3 MUL DUP4 ADD GT ISZERO PUSH2 0x5AF JUMPI PUSH2 0x5AE PUSH2 0x55B JUMP JUMPDEST JUMPDEST SWAP3 POP SWAP3 SWAP1 POP JUMP JUMPDEST PUSH1 0x0 DUP1 PUSH1 0x20 DUP4 DUP6 SUB SLT ISZERO PUSH2 0x5CD JUMPI PUSH2 0x5CC PUSH2 0x409 JUMP JUMPDEST JUMPDEST PUSH1 0x0 DUP4 ADD CALLDATALOAD PUSH8 0xFFFFFFFFFFFFFFFF DUP2 GT ISZERO PUSH2 0x5EB JUMPI PUSH2 0x5EA PUSH2 0x40E JUMP JUMPDEST JUMPDEST PUSH2 0x5F7 DUP6 DUP3 DUP7 ADD PUSH2 0x560 JUMP JUMPDEST SWAP3 POP SWAP3 POP POP SWAP3 POP SWAP3 SWAP1 POP JUMP JUMPDEST PUSH1 0x0 DUP1 PUSH1 0x0 PUSH1 0x40 DUP5 DUP7 SUB SLT ISZERO PUSH2 0x61C JUMPI PUSH2 0x61B PUSH2 0x409 JUMP JUMPDEST JUMPDEST PUSH1 0x0 PUSH2 0x62A DUP7 DUP3 DUP8 ADD PUSH2 0x434 JUMP JUMPDEST SWAP4 POP POP PUSH1 0x20 DUP5 ADD CALLDATALOAD PUSH8 0xFFFFFFFFFFFFFFFF DUP2 GT ISZERO PUSH2 0x64B JUMPI PUSH2 0x64A PUSH2 0x40E JUMP JUMPDEST JUMPDEST PUSH2 0x657 DUP7 DUP3 DUP8 ADD PUSH2 0x560 JUMP JUMPDEST SWAP3 POP SWAP3 POP POP SWAP3 POP SWAP3 POP SWAP3 JUMP JUMPDEST PUSH32 0x4E487B7100000000000000000000000000000000000000000000000000000000 PUSH1 0x0 MSTORE PUSH1 0x32 PUSH1 0x4 MSTORE PUSH1 0x24 PUSH1 0x0 REVERT JUMPDEST PUSH32 0x4E487B7100000000000000000000000000000000000000000000000000000000 PUSH1 0x0 MSTORE PUSH1 0x22 PUSH1 0x4 MSTORE PUSH1 0x24 PUSH1 0x0 REVERT JUMPDEST PUSH1 0x0 PUSH1 0x2 DUP3 DIV SWAP1 POP PUSH1 0x1 DUP3 AND DUP1 PUSH2 0x6D9 JUMPI PUSH1 0x7F DUP3 AND SWAP2 POP JUMPDEST PUSH1 0x20 DUP3 LT DUP2 SUB PUSH2 0x6EC JUMPI PUSH2 0x6EB PUSH2 0x692 JUMP JUMPDEST JUMPDEST POP SWAP2 SWAP1 POP JUMP JUMPDEST PUSH32 0x4E487B7100000000000000000000000000000000000000000000000000000000 PUSH1 0x0 MSTORE PUSH1 0x41 PUSH1 0x4 MSTORE PUSH1 0x24 PUSH1 0x0 REVERT JUMPDEST PUSH1 0x0 DUP2 SWAP1 POP DUP2 PUSH1 0x0 MSTORE PUSH1 0x20 PUSH1 0x0 KECCAK256 SWAP1 POP SWAP2 SWAP1 POP JUMP JUMPDEST PUSH1 0x0 PUSH1 0x20 PUSH1 0x1F DUP4 ADD DIV SWAP1 POP SWAP2 SWAP1 POP JUMP JUMPDEST PUSH1 0x0 DUP3 DUP3 SHL SWAP1 POP SWAP3 SWAP2 POP POP JUMP JUMPDEST PUSH1 0x0 PUSH1 0x8 DUP4 MUL PUSH2 0x783 PUSH32 0xFFFFFFFFFFFFFFFFFFFFFFFFFFFFFFFFFFFFFFFFFFFFFFFFFFFFFFFFFFFFFFFF DUP3 PUSH2 0x746 JUMP JUMPDEST PUSH2 0x78D DUP7 DUP4 PUSH2 0x746 JUMP JUMPDEST SWAP6 POP DUP1 NOT DUP5 AND SWAP4 POP DUP1 DUP7 AND DUP5 OR SWAP3 POP POP POP SWAP4 SWAP3 POP POP POP JUMP JUMPDEST PUSH1 0x0 DUP2 SWAP1 POP SWAP2 SWAP1 POP JUMP JUMPDEST PUSH1 0x0 PUSH2 0x7CA PUSH2 0x7C5 PUSH2 0x7C0 DUP5 PUSH2 0x413 JUMP JUMPDEST PUSH2 0x7A5 JUMP JUMPDEST PUSH2 0x413 JUMP JUMPDEST SWAP1 POP SWAP2 SWAP1 POP JUMP JUMPDEST PUSH1 0x0 DUP2 SWAP1 POP SWAP2 SWAP1 POP JUMP JUMPDEST PUSH2 0x7E4 DUP4 PUSH2 0x7AF JUMP JUMPDEST PUSH2 0x7F8 PUSH2 0x7F0 DUP3 PUSH2 0x7D1 JUMP JUMPDEST DUP5 DUP5 SLOAD PUSH2 0x753 JUMP JUMPDEST DUP3 SSTORE POP POP POP POP JUMP JUMPDEST PUSH1 0x0 SWAP1 JUMP JUMPDEST PUSH2 0x80D PUSH2 0x800 JUMP JUMPDEST PUSH2 0x818 DUP2 DUP5 DUP5 PUSH2 0x7DB JUMP JUMPDEST POP POP POP JUMP JUMPDEST JUMPDEST DUP2 DUP2 LT ISZERO PUSH2 0x83C JUMPI PUSH2 0x831 PUSH1 0x0 DUP3 PUSH2 0x805 JUMP JUMPDEST PUSH1 0x1 DUP2 ADD SWAP1 POP PUSH2 0x81E JUMP JUMPDEST POP POP JUMP JUMPDEST PUSH1 0x1F DUP3 GT ISZERO PUSH2 0x881 JUMPI PUSH2 0x852 DUP2 PUSH2 0x721 JUMP JUMPDEST PUSH2 0x85B DUP5 PUSH2 0x736 JUMP JUMPDEST DUP2 ADD PUSH1 0x20 DUP6 LT ISZERO PUSH2 0x86A JUMPI DUP2 SWAP1 POP JUMPDEST PUSH2 0x87E PUSH2 0x876 DUP6 PUSH2 0x736 JUMP JUMPDEST DUP4 ADD DUP3 PUSH2 0x81D JUMP JUMPDEST POP POP JUMPDEST POP POP POP JUMP JUMPDEST PUSH1 0x0 DUP3 DUP3 SHR SWAP1 POP SWAP3 SWAP2 POP POP JUMP JUMPDEST PUSH1 0x0 PUSH2 0x8A4 PUSH1 0x0 NOT DUP5 PUSH1 0x8 MUL PUSH2 0x886 JUMP JUMPDEST NOT DUP1 DUP4 AND SWAP2 POP POP SWAP3 SWAP2 POP POP JUMP JUMPDEST PUSH1 0x0 PUSH2 0x8BD DUP4 DUP4 PUSH2 0x893 JUMP JUMPDEST SWAP2 POP DUP3 PUSH1 0x2 MUL DUP3 OR SWAP1 POP SWAP3 SWAP2 POP POP JUMP JUMPDEST PUSH2 0x8D6 DUP3 PUSH2 0x476 JUMP JUMPDEST PUSH8 0xFFFFFFFFFFFFFFFF DUP2 GT ISZERO PUSH2 0x8EF JUMPI PUSH2 0x8EE PUSH2 0x6F2 JUMP JUMPDEST JUMPDEST PUSH2 0x8F9 DUP3 SLOAD PUSH2 0x6C1 JUMP JUMPDEST PUSH2 0x904 DUP3 DUP3 DUP6 PUSH2 0x840 JUMP JUMPDEST PUSH1 0x0 PUSH1 0x20 SWAP1 POP PUSH1 0x1F DUP4 GT PUSH1 0x1 DUP2 EQ PUSH2 0x937 JUMPI PUSH1 0x0 DUP5 ISZERO PUSH2 0x925 JUMPI DUP3 DUP8 ADD MLOAD SWAP1 POP JUMPDEST PUSH2 0x92F DUP6 DUP3 PUSH2 0x8B1 JUMP JUMPDEST DUP7 SSTORE POP PUSH2 0x997 JUMP JUMPDEST PUSH1 0x1F NOT DUP5 AND PUSH2 0x945 DUP7 PUSH2 0x721 JUMP JUMPDEST PUSH1 0x0 JUMPDEST DUP3 DUP2 LT ISZERO PUSH2 0x96D JUMPI DUP5 DUP10 ADD MLOAD DUP3 SSTORE PUSH1 0x1 DUP3 ADD SWAP2 POP PUSH1 0x20 DUP6 ADD SWAP5 POP PUSH1 0x20 DUP2 ADD SWAP1 POP PUSH2 0x948 JUMP JUMPDEST DUP7 DUP4 LT ISZERO PUSH2 0x98A JUMPI DUP5 DUP10 ADD MLOAD PUSH2 0x986 PUSH1 0x1F DUP10 AND DUP3 PUSH2 0x893 JUMP JUMPDEST DUP4 SSTORE POP JUMPDEST PUSH1 0x1 PUSH1 0x2 DUP9 MUL ADD DUP9 SSTORE POP POP POP JUMPDEST POP POP POP POP POP POP JUMP JUMPDEST PUSH1 0x0 DUP3 SWAP1 POP SWAP3 SWAP2 POP POP JUMP JUMPDEST PUSH2 0x9B4 DUP4 DUP4 PUSH2 0x99F JUMP JUMPDEST PUSH8 0xFFFFFFFFFFFFFFFF DUP2 GT ISZERO PUSH2 0x9CD JUMPI PUSH2 0x9CC PUSH2 0x6F2 JUMP JUMPDEST JUMPDEST PUSH2 0x9D7 DUP3 SLOAD PUSH2 0x6C1 JUMP JUMPDEST PUSH2 0x9E2 DUP3 DUP3 DUP6 PUSH2 0x840 JUMP JUMPDEST PUSH1 0x0 PUSH1 0x1F DUP4 GT PUSH1 0x1 DUP2 EQ PUSH2 0xA11 JUMPI PUSH1 0x0 DUP5 ISZERO PUSH2 0x9FF JUMPI DUP3 DUP8 ADD CALLDATALOAD SWAP1 POP JUMPDEST PUSH2 0xA09 DUP6 DUP3 PUSH2 0x8B1 JUMP JUMPDEST DUP7 SSTORE POP PUSH2 0xA71 JUMP JUMPDEST PUSH1 0x1F NOT DUP5 AND PUSH2 0xA1F DUP7 PUSH2 0x721 JUMP JUMPDEST PUSH1 0x0 JUMPDEST DUP3 DUP2 LT ISZERO PUSH2 0xA47 JUMPI DUP5 DUP10 ADD CALLDATALOAD DUP3 SSTORE PUSH1 0x1 DUP3 ADD SWAP2 POP PUSH1 0x20 DUP6 ADD SWAP5 POP PUSH1 0x20 DUP2 ADD SWAP1 POP PUSH2 0xA22 JUMP JUMPDEST DUP7 DUP4 LT ISZERO PUSH2 0xA64 JUMPI DUP5 DUP10 ADD CALLDATALOAD PUSH2 0xA60 PUSH1 0x1F DUP10 AND DUP3 PUSH2 0x893 JUMP JUMPDEST DUP4 SSTORE POP JUMPDEST PUSH1 0x1 PUSH1 0x2 DUP9 MUL ADD DUP9 SSTORE POP POP POP JUMPDEST POP POP POP POP POP POP POP JUMP INVALID LOG2 PUSH5 0x6970667358 0x22 SLT KECCAK256 0x23 PUSH21 0x4691923FD391B6228B96E56E0C52A88CEA307ACA6A MSIZE PUSH18 0x84669618444DD164736F6C63430008120033 "
				},
				"gasEstimates": {
					"creation": {
						"codeDepositCost": "547200",
						"executionCost": "581",
						"totalCost": "547781"
					},
					"external": {
						"create(string)": "infinite",
						"get(uint256)": "infinite",
						"todos(uint256)": "infinite",
						"toggleCompleted(uint256)": "29006",
						"updateText(uint256,string)": "infinite"
					}
				},
				"methodIdentifiers": {
					"create(string)": "b6a46b3b",
					"get(uint256)": "9507d39a",
					"todos(uint256)": "bc8bc2b4",
					"toggleCompleted(uint256)": "455f5024",
					"updateText(uint256,string)": "cd111614"
				}
			},
			"storageLayout": {
				"storage": [
					{
						"astId": 222,
						"contract": "contracts/Mapping.sol:Todos",
						"label": "todos",
						"offset": 0,
						"slot": "0",
						"type": "t_array(t_struct(Todo)218_storage)dyn_storage"
					}
				],
				"types": {
					"t_array(t_struct(Todo)218_storage)dyn_storage": {
						"base": "t_struct(Todo)218_storage",
						"encoding": "dynamic_array",
						"label": "struct Todos.Todo[]",
						"numberOfBytes": "32"
					},
					"t_bool": {
						"encoding": "inplace",
						"label": "bool",
						"numberOfBytes": "1"
					},
					"t_string_storage": {
						"encoding": "bytes",
						"label": "string",
						"numberOfBytes": "32"
					},
					"t_struct(Todo)218_storage": {
						"encoding": "inplace",
						"label": "struct Todos.Todo",
						"members": [
							{
								"astId": 215,
								"contract": "contracts/Mapping.sol:Todos",
								"label": "textvar",
								"offset": 0,
								"slot": "0",
								"type": "t_string_storage"
							},
							{
								"astId": 217,
								"contract": "contracts/Mapping.sol:Todos",
								"label": "completed",
								"offset": 0,
								"slot": "1",
								"type": "t_bool"
							}
						],
						"numberOfBytes": "64"
					}
				}
			},
			"userdoc": {
				"kind": "user",
				"methods": {},
				"version": 1
			}
		}
	}
}